:0C0000000C9454000C9481000C948F00B0
:10000C000C9400000C9400000C9400000C94000064
:10001C000C9400000C9400000C9400000C94BD0097
:10002C000C94BC000C9400000C9400000C94000088
:10003C000C9400000C9400000C9400000C94000034
:10004C000C9400000C9400001027E80364000A00D4
:10005C000100001000011000010000000000000071
:10006C000000000030303A30303A303020436F6DB1
:10007C00706C6574656420002564203A202564202A
:10008C003A202564200080C00A00040066000800A5
:10009C00640270000200780292000000F894EE27CF
:1000AC00ECBBF1E0FBBFEBBFE5BF8DE0A2E0BB27F3
:1000BC00ED938A95E9F780E098E0A0E6ED9301973F
:1000CC00E9F7E4E9F0E085919591009761F0A5914D
:1000DC00B59105901590BF01F00105900D92019717
:1000EC00E1F7FB01F0CFEFE5EDBFE8E0EEBFC0E6D6
:1000FC00D2E00C94BE00EA93FA93E0916202F09184
:10010C006302E0936002F09361026F01F991E9914F
:10011C001895EA93FA93EFB7EA93F5010E940E044F
:10012C00AE2EBB24E991EFBFF991E9911895ECE360
:10013C00F0E0EC15FD05B1F4CC24DD24A0E6B2E032
:10014C000E94B203A0916002B0916102DC9749F465
:10015C00E0E0E0936002E0936102A2E6B2E00E946C
:10016C00B20303C0F60131966F01089518951895E6
:10017C00E0E0EABBEBBBE7BBE8BBEFEFE4BBE0E0E6
:10018C00E5BBE0E4E1BBE0E0E2BBE3E0E3BFE3E8D6
:10019C00E2BFE0E0ECBFEFBDEEBDEDBDECBDE7BDF9
:1001AC00E6BDEBBDEABDE9BDE8BDE2BDE5BDE4BD24
:1001BC00E3BDE1E0E9BFEBB7E06CEBBFEFE0E5BF1F
:1001CC00E0E0E4BFE0ECEABFE0E0EAB9E0E8E8B97F
:1001DC00E0E0E0BFE6B9EDB9E6BFA0E10E946A033A
:1001EC007894E4E1F0E03F01EAE0F0E02F01E1E097
:1001FC00F0E04F010A2C0B2829F4AAE0B0E00E9491
:10020C00F70395DF6C147D0471F4A0916002B0913A
:10021C0061024A165B0639F4A0916202B091630246
:10022C008A169B0609F018C0E4E6F2E0FA93EA930A
:10023C00E8E7F0E0FA93EA9380E00E94C602249685
:10024C00E0E0F0E0E0936202F0936302E09360027E
:10025C00F09361026F011BC0E4E6F2E0FA93EA93BB
:10026C00E4E8F0E0FA93EA93E0916202F091630221
:10027C000E94B803E0916002F09161020E94B80301
:10028C00F6010E94B8038CE00E94C6026096E0E082
:10029C00EA93A0E00E941A03A4E6B2E00E9459037C
:1002AC00A0CFFFCFBA93AA931A930A93AA81BB81CA
:1002BC0012960E941304309729F1AA81BB811496DF
:1002CC000E9413048F01309761F00230E0E01E07AA
:1002DC0080F0F80131978F01AA81BB811496ED93C0
:1002EC00FC93AA81BB8112960E94B2033197AC8118
:1002FC00A083AA81BB810E941304FF2312F00E94E9
:10030C00B20306C0AA81BB81EFEFFFEFED93FC9324
:10031C001981088125960895BA93AA9326970E946D
:10032C00200410E0AC85BD85E0E0F0E0ED93FC939B
:10033C00EA89FB893196EA8BFB8B3197E4912E2F5E
:10034C00E03009F415C1E12FE03039F4253211F415
:10035C0011E002C00E94BD030AC1E130A9F42532AC
:10036C0019F40E94BD0302C112E040E000E02D32FE
:10037C0011F401E0FCC02B3211F44BE2F8C0203236
:10038C0011F440E2F4C002C0E23039F450E013E062
:10039C00203311F40068EBC003C0E33009F0E7C070
:1003AC00203310F02A3308F007C0AAE05A9F502DD2
:1003BC00E22FE0535E0FDBC0E22FE33649F40E94DC
:1003CC00C403E889F989A481AA930E94CA03CEC008
:1003DC00E33741F40E94C4030E94D0030E949903A6
:1003EC001E2F0AC0E03761F40E94C4030E94D003A0
:1003FC000E94A5031E2F086002600F7730E034C006
:10040C00E43611F0E93611F4046002C0E53731F43A
:10041C00E4E5F0E0EE83FF8315E00CC0E83511F461
:10042C00086003C0E83709F0A1C0EEE5F0E0EE8308
:10043C00FF8314E002FF14C00E94C4030E94DA037D
:10044C00AB85AA233AF4EA85FB850E940504EA876A
:10045C00FB874DE2403011F01F5F01C00B7F04C0E1
:10046C000E94C4030E94DA0300FD11C0151778F432
:10047C0007FF08C002FF04C00B7F242F115001C0DE
:10048C0020E301C020E20E94BD035150EFCF312F79
:10049C0001FF17C03030A1F003FF06C0EE81FF81D1
:1004AC002591EE83FF8305C0AE81BF812D91AE8374
:1004BC00BF830E94BD03503009F051503150EACF38
:1004CC004BC020E3EE81FF810E941704E887F98777
:1004DC00EE81FF813296EE83FF83E885F985AA854C
:1004EC00BB85AE17BF0750F02F5FA885B985EA858D
:1004FC00FB85EA1BFB0BEA87FB87EFCF2A3328F03F
:10050C0003FF02C0295F01C0295D04FD1AC021331D
:10051C0020F4A885B985119709F409C0531710F078
:10052C0000FF01C013C020E207FF0BC020E30061F5
:10053C0002FF07C00B7F4A930E94CA03503009F098
:10054C0051500E94BD03503009F051503150A885D4
:10055C00B985129708F0B5CF00FF08C0503031F0C4
:10056C005150E0E2EA930E94CA03F8CF10E0E0CECB
:10057C00AC85BD850E9413040E94270464960895DF
:10058C00FF92F82E26970E9422040E94E2033097D5
:10059C0019F4EFEFFFEF23C0DE0116960E94010461
:1005AC008D010E94E203EE83FF83E0E0E887E98798
:1005BC00DE011A960E9401040E941304FA93EA9336
:1005CC001A930A93E8E5F1E0FA93EA93DE011A969E
:1005DC00A3DE9F01AE81BF81E0E0EC93F9010E94A4
:1005EC0029042A96FF900895AA93E5B3EF70AE2FD5
:1005FC00E881E07FEA2BE5BB8DE08A95F1F7AA9ABA
:10060C008DE08A95F1F7AA988DE08A95F1F789C06B
:10061C00AA93A881E9DFE881E295E883A881E4DF69
:10062C0085E88A95F1F77DC0AA93E881F0E0E85857
:10063C00FD4FE081A981AE0FEBDFE981E0937C02F5
:10064C00E881E0937D0222960895A2E00E94E903DE
:10065C00ACE0DEDFA1E00E94E903E0E0E0937D0284
:10066C00E0937C020895AA93A881AA3031F0E0911E
:10067C007E02A0917C02AE1760F0E0E0EA93A091BC
:10068C007D02AF5FA0937D02CFDFA881AA3009F471
:10069C0048C0E0917C02EF5FE0937C02A89AA881AD
:1006AC00B7DFA8983EC0BA93AA931A93A981BA81CE
:1006BC00ED91A983BA831E2FE03019F0A12FD3DF5F
:1006CC00F5CF188123960895AA93E4B3E06FE4BBA9
:1006DC00A29AA09AA19AAA98A898A998E881E093BE
:1006EC007E02E058E0937A02E881E054E0937B02CA
:1006FC00A4E1B0E00E94F7030E94EF030E94EF0315
:10070C000E94EF03A0E270DF88EC90E00197F1F714
:10071C00A8E27EDFA4E07CDFA5E87ADFA6E078DF44
:10072C0094DF21960895BA93AA93A991B991EE27D3
:10073C00FF276D91662311F03196FBCF0895BA9384
:10074C00AA93AA27BB27E991F9910590002011F0F3
:10075C001196FBCFFD010895ED91FD913196FE931D
:10076C00EE9308950E9409040E941B0408952A9395
:10077C00AD85BE85EF85F88909950895E889F989D5
:10078C003497E88BF98B0895AD85BE85EF85F88994
:10079C0009950895A889B98914960E941304EE83CB
:1007AC00FF83AE81BF810895A889B98914960E94F0
:1007BC001304EA87FB870895DE011C960E9401044E
:1007CC000E94130408950E940E03A3E0B0E00C9461
:1007DC00F703A0E30E94FA0288EC90E00197F1F78E
:1007EC000895109639F080ED97E00197F1F7A895F0
:1007FC001197C9F708950024AF0DB01D0895F19518
:10080C00E195F04008956F2F660F660B762F0895D3
:10081C00EF2BE1E009F0E0E00895ED91FC911197E8
:10082C0008950590F491E02D08957A936A93FA93C4
:10083C00EA9308955A934A933A932A931A930A93F4
:10084C0008955D814C813B812A811981088108952D
:00000001FF
