:060000000C944B000C946F
:1000060000000C9400000C9400000C9400000C946A
:1000160000000C9400000C9400000C9400000C945A
:1000260000000C9400000C9400000C9400000C944A
:1000360078000C9400000C94AA000C9400000C9418
:1000460000000C9400000C9400000C940000102793
:10005600E80364000A00010000100001100001001E
:100066000000000000000000000048656C6C6F0096
:100076002564000080C0010002006600080004003C
:1000860068000600600270000200DA027A000000D2
:10009600F894EE27ECBBF1E0FBBFEBBFE5BF8DE0CC
:1000A600A2E0BB27ED938A95E9F780E098E0A0E609
:1000B600ED930197E9F7ECE7F0E0859195910097CC
:1000C60061F0A591B59105901590BF01F0010590DD
:1000D6000D920197E1F7FB01F0CFEFE5EDBFE8E008
:1000E600EEBFC0E6D2E00C94C100EA93FA93EFB7F4
:1000F600EA931A930A931BB10CB1E12FEC7189F4C0
:10010600E42D4394F0E0E653FD4F0083E8E0E41568
:1001160009F444246394E8E0E61519F46624689427
:1001260020F80991199125C01A936620F1F3E72D5D
:100136007394F0E0E653FD4F1081E8E0E71509F40B
:100146007724F8946A947894E12F19910895EA93A4
:10015600FA93EFB7EA93BB2061F0BA94E82D839443
:10016600F0E0EE52FD4FE081ECB9E8E0E81509F465
:100176008824E991EFBFF991E9911895E0E0EABB8F
:10018600EBBBE7BBE8BBE4BBE5BBE1BBE2BBE3BF64
:10019600E2BFECBFEFBDEEBDEDBDECBDE7BDE6BD1C
:1001A600EBBDEABDE9BDE8BDE2BDE5BDE4BDE3BD2D
:1001B600E9BFE5BFE4BFEBB9E8EDEAB9EEE8E0BDBB
:1001C600E0E0E0BDE3E3E9B9E0E8E8B9E0E0E0BF9C
:1001D600E6B9EDB9E6BFA0E18DD07894A6E6B2E027
:1001E60078D0A0E6B2E075D0A8EEB3E00E94A603F0
:1001F6004FD09ADF5E2EE6E6F2E0FA93EA93E6E760
:10020600F0E0FA93EA93E52DFF27662777270E9409
:10021600C00384E00E941F032896A8EEB3E00E9464
:10022600A603A6E6B2E055D0A8EBBBE00E94A60363
:100236002FD0D7CFFFCFAA93E5B3EF70AE2FE881CB
:10024600E07FEA2BE5BB8DE08A95F1F7AA9A8DE06F
:100256008A95F1F7AA988DE08A95F1F777C0AA9367
:10026600A881E9DFE881E295E883A881E4DF85E8F3
:100276008A95F1F76BC0AA93E881F0E0E652FD4F4C
:10028600E081A981AE0FEBDFA980D8802296089580
:10029600A2E00E946C03ACE0E2DFA1E00E946C03E6
:1002A600E0E0DE2EAE2E0895AA93A881AA3011F0C2
:1002B600AC1448F0E0E0EA93D394AD2DDCDFA881DE
:1002C600AA3009F443C0A394A89AA881C8DFA898C5
:1002D6003DC0BA93AA931A93A981BA81ED91A983D5
:1002E600BA831E2FE03019F0A12FDEDFF5CF18817B
:1002F60023960895AA93E4B3E06FE4BBA29AA09A6A
:10030600A19AAA98A898A998C880E881E058E0938D
:10031600DC02E881E054E093DD02A4E1B0E00E9453
:10032600A6030E9472030E9472030E947203A0E257
:1003360082DF88EC90E00197F1F7A8E290DFA4E075
:100346008EDFA5E88CDFA6E08ADFA2DF219608957E
:10035600BA93AA931A930A93AA81BB8112960E9412
:10036600B803309759F1AA81BB8114960E94B8034D
:100376008F01309761F00230E0E01E0798F0F80137
:1003860031978F01AA81BB811496ED93FC93AA81C4
:10039600BB811296ED91FD913196FE93EE933197C6
:1003A600AC81A083AA81BB810E94B803FF232AF0F7
:1003B600ED91FD913196FE93EE9306C0AA81BB8125
:1003C600EFEFFFEFED93FC931981088125960895D1
:1003D600BA93AA9326970E94C50310E0AC85BD8503
:1003E600E0E0F0E0ED93FC93EA89FB893196EA8B35
:1003F600FB8B3197E4912E2FE03009F415C1E12FE4
:10040600E03039F4253211F411E002C00E947A037B
:100416000AC1E130A9F4253219F40E947A0302C117
:1004260012E040E000E02D3211F401E0FCC02B3276
:1004360011F44BE2F8C0203211F440E2F4C002C0DD
:10044600E23039F450E013E0203311F40068EBC0D9
:1004560003C0E33009F0E7C0203310F02A3308F078
:1004660007C0AAE05A9F502DE22FE0535E0FDBC073
:10047600E22FE33649F40E948103E889F989A481D1
:10048600AA930E948703CEC0E33741F40E948103FA
:100496000E948D030E9453031E2F0AC0E03761F4A9
:1004A6000E9481030E948D030E945F031E2F086035
:1004B60002600F7730E034C0E43611F0E93611F40B
:1004C600046002C0E53731F4E4E5F0E0EE83FF8333
:1004D60015E00CC0E83511F4086003C0E83709F0F0
:1004E600A1C0EEE5F0E0EE83FF8314E002FF14C046
:1004F6000E9481030E949703AB85AA233AF4EA85FA
:10050600FB850E94B403EA87FB874DE2403011F079
:100516001F5F01C00B7F04C00E9481030E949703E6
:1005260000FD11C0151778F407FF08C002FF04C0CC
:100536000B7F242F115001C020E301C020E20E944E
:100546007A035150EFCF312F01FF17C03030A1F0A1
:1005560003FF06C0EE81FF812591EE83FF8305C070
:10056600AE81BF812D91AE83BF830E947A03503046
:1005760009F051503150EACF4BC020E3EE81FF81A4
:100586000E94BC03E887F987EE81FF813296EE83ED
:10059600FF83E885F985AA85BB85AE17BF0750F0AE
:1005A6002F5FA885B985EA85FB85EA1BFB0BEA87E1
:1005B600FB87EFCF2A3328F003FF02C0295F01C073
:1005C600295D04FD1AC0213320F4A885B985119749
:1005D60009F409C0531710F000FF01C013C020E250
:1005E60007FF0BC020E3006102FF07C00B7F4A93A1
:1005F6000E948703503009F051500E947A03503010
:1006060009F051503150A885B985129708F0B5CF39
:1006160000FF08C0503031F05150E0E2EA930E94EA
:100626008703F8CF10E0E0CEAC85BD850E94B80305
:100636000E94CC0364960895FF92F82E26970E9496
:10064600C7030E949F03309719F4EFEFFFEF23C013
:10065600DE0116960E94B0038D010E949F03EE8371
:10066600FF83E0E0E887E987DE011A960E94B0037F
:100676000E94B803FA93EA931A930A93EBEAF1E01D
:10068600FA93EA93DE011A96A3DE9F01AE81BF813B
:10069600E0E0EC93F9010E94CE032A96FF900895BC
:1006A600BA93AA93A991B991EE27FF276D91662374
:1006B60011F03196FBCF0895BA93AA93AA27BB27C8
:1006C600E991F9910590002011F01196FBCFFD01FB
:1006D60008950E943201A3E0B0E00C94A603A0E3C3
:1006E6000E941E0188EC90E00197F1F708952A9385
:1006F600AD85BE85EF85F88909950895E889F9895C
:100706003497E88BF98B0895AD85BE85EF85F8891A
:1007160009950895A889B98914960E94B803EE83AD
:10072600FF83AE81BF810895A889B98914960E9476
:10073600B803EA87FB870895DE011C960E94B00382
:100746000E94B8030895109639F080ED97E001975E
:10075600F1F7A8951197C9F708950024AF0DB01DBC
:100766000895F195E195F0400895ED91FC9111976A
:1007760008950590F491E02D08957A936A93FA937B
:10078600EA9308955A934A933A932A931A930A93AB
:1007960008955D814C813B812A81198108810895E4
:00000001FF
