:080000000C944C000C9400006C
:100008000C9400000C9400000C9400000C94000068
:100018000C9400000C9400000C9400000C94000058
:100028000C9413010C9412010C9400000C947900A8
:100038000C9400000C94C5000C9414010C9400005E
:100048000C9400000C9400000C9400001027E803A6
:1000580064000A0001000010000110000100000007
:100068000000AA0020E1004000003130313031307A
:100078003130313131313131313180C0010002004C
:1000880066000A0004006800020080028200000086
:10009800F894EE27ECBBF1E0FBBFEBBFE5BF8DE0CA
:1000A800A2E0BB27ED938A95E9F780E098E0A0E607
:1000B800ED930197E9F7E4E8F0E0859195910097D1
:1000C80061F0A591B59105901590BF01F0010590DB
:1000D8000D920197E1F7FB01F0CFEFE5EDBFE8E006
:1000E800EEBFC0E6D2E00C945301AA93EA93FA93C8
:1000F800EFB7EA931A930A931BB10CB1E12FEC7195
:10010800E9F4E0916E02EF5FE0936E02E150F0E0F7
:10011800EA59FD4F0083A0916E02A83019F4E0E07F
:10012800E0936E02A0917002AF5FA0937002A830B6
:1001380029F4E0E0E0937002689420F8099119919D
:100148003EC01A93E0917002E030E1F3E0916F0253
:10015800EF5FE0936F02E150F0E0EA59FD4F108144
:10016800A0916F02A83019F4E0E0E0936F02F894D0
:10017800E0917002E150E09370027894E12F1991B8
:100188000895AA93EA93FA93EFB7EA93E0917B0272
:10019800E030A9F0E150E0937B02E0917A02EF5F52
:1001A800E0937A02E150F0E0EF58FD4FE081ECB9BE
:1001B800A0917A02A83019F4E0E0E0937A02E9917C
:1001C800EFBFF991E991A9911895AA93A0917B02A3
:1001D800A830E1F3F894E0917B02E03011F45D99E6
:1001E80018C0E0917902EF5FE0937902E150F0E006
:1001F800EF58FD4FA881A083A0917902A83019F487
:10020800E0E0E0937902E0917B02EF5FE0937B020C
:1002180002C0E881ECB978940C9468021895189596
:100228008A93AA93BA93EA93EFB7EA93A0917F02CD
:10023800B0E0A458BD4FE5B1EC93A0917F02AF5F49
:10024800A0937F02A33018F0E0E0E0937F02E091F2
:100258007F02E05EE7B98BE18A95F1F7369AE9917A
:10026800EFBFE991B991A991899118950E94D2039C
:10027800E0917C02F0E08F010E948C030E940D0344
:10028800DF01CB01ECEBF4E763E070E40E943B0391
:100298000E94D4029F010E94D70324960895E0E0AB
:1002A800EABBEBBBE8E0E7BBE0E0E8BBE4BBE5BBEF
:1002B800E1BBE2BBE3E6E3BFE0E0E2BFE0E6ECBFC0
:1002C800E0E0EFBDEEBDEDBDECBDE7BDE6BDEBBDCD
:1002D800EABDE9BDE8BDE2BDE5BDE4BDE3BDE3E0DF
:1002E800E9BFE0E0E5BFE4BFEBB9E8EDEAB9EEE865
:1002F800E0BDE0E0E0BDE3E3E9B9E0E8E8B9E0E269
:10030800E7B9EBECE6B9E0E0E0BFEDB9E6BFA0E1A4
:100318000E943B027894EAEAAE2EAA2DB0E0AA3AEF
:10032800E0E0BE0709F06FC0E0E2AE2EAA2DB0E013
:10033800909709F050C09ADF2F01D201EFEFF0E05B
:100348000E94B603E0936202F0936302D201EFEFDA
:10035800F0E00E94B103E0936402F09365020E940A
:100368006A0219F40E94700209F407C00E9476021A
:100378000E948902A091640226C00E946A0219F0B4
:100388000E94700209F003C00E94760215C00E9404
:100398006A0219F00E94700209F41CC0E2E0F0E061
:1003A8006F01A62D0E948902A0E20E948902AC2D4D
:1003B8000E948902A091640208DFA1E0B0E00E94D7
:1003C8009D02A091620201DFA1E0B0E00E949D02BF
:1003D800A92DFBDE18C0AA2DB0E0A034E0E0BE07CE
:1003E80091F4AFDEAEDEF0E0E0936002F0936102DC
:1003F800AFEFB0E00E949903DF01E4E6F0E00E946D
:10040800B103ECBF9EDEA8EBBBE00E949D0283CF48
:10041800FFCFAA93E5B3EF70AE2FE881E07FEA2B18
:10042800E5BB8DE08A95F1F7AA9A8DE08A95F1F7F8
:10043800AA988DE08A95F1F747C0AA93A881E9DFC9
:10044800E881E295E883A881E4DF85E88A95F1F7F9
:100458003BC0A2E00E948F02ACE0EFDFA1E00E9467
:100468008F02E0E0E0938502E09384020895AA9366
:10047800E4B3E06FE4BBA29AA09AA19AAA98A898BC
:10048800A998E881E0938602E058E0938202E88127
:10049800E054E0938302A4E1B0E00E949D020E9430
:1004A80095020E9495020E949502A0E2B2DF88ECB4
:1004B80090E00197F1F7A8E2C0DFA4E0BEDFA5E86D
:1004C800BCDFA6E0BADFC5DF21960895A0916202DD
:1004D800B091630210970895A0916402B0916502EB
:1004E80010970895E1E0F0E06F01A62D0E94E90061
:1004F800A1E0B0E00E949D02A0E20E94E900A1E014
:10050800B0E00E949D02AC2D08950E94E900A1E090
:10051800B0E00C949D020E942102A3E0B0E00C948C
:100528009D02A0E30E940D0288EC90E00197F1F78C
:100538000895109639F080ED97E00197F1F7A895A6
:100548001197C9F70895552342F4503811F4E0FF84
:1005580004C03196691F791F6BF050E8572711F4D2
:100568005F9373C05F3F31F0660F000C5795679536
:10057800752F08955F9300200AF073C06CC050E88F
:10058800192E1522880F991F9527550F879550E822
:10059800072E0522660F771F7527550F6795089553
:1005A800689401C0E8945F93F2DF703818F07F3FD9
:1005B80008F44BC056E1571BAAF4519558300EF475
:1005C800593030F0EFEFFFEF6FEF7FE777F91AC0A0
:1005D80077275523B9F0EE0FFF1F661F771F5A952F
:1005E800D1F710C07727583028F0EF2FF62F672F54
:1005F8005850F9CF552331F076956795F795E795DB
:100608005A95D1F700200AF47BD05F910895689439
:1006180001C0E894309760407040B1F0002426F0A3
:10062800772312F400946CD0172E7EE1112032F05B
:100638007A95EE0FFF1F661F111CF9CFEF2FF62FCB
:10064800612D5F938ADF5F910895EE27FF27662764
:1006580077275F910895EFEFFFEF6FE77FEF5F91E7
:100668000895EFEFFFEF6FE77FE75F9108955F93DE
:1006780086DF703821F411200AF4EDCFF2CF9038DC
:1006880009F4E3CF01240894970B1BF4D4F300205A
:10069800F3CF792F1F932F933F934F931124112753
:1006A800222733274427552790E2AE17BF0786072E
:1006B800410730F0AE1BBF0B860B410B089401C0FD
:1006C8008894551F221F331F111CAA1FBB1F881F88
:1006D800441F9A9551F7F901612D4F913F912F9140
:1006E8001F91662332F0550FEE1FFF1F661F7A9584
:1006F80043F229DF5F910895F195E195F04008955F
:10070800F09560957095E195FF4F6F4F7F4F089575
:100718006F2F660F660B762F0895FA9FF02DEB9FCB
:10072800F00DEA9FE02DF10D08952AD0F6DF0EF4C2
:10073800E3DF08950024112490E1AA0FBB1F001CD9
:10074800111C0E1A1F0A18F40E0E1F1E01C0A160FC
:100758009A9599F7FD01D001089512D0EBDF0EF4B8
:10076800CBDF0895E894B7FF04C0A095B095119623
:100778006894F7FDC1DFDEDFFD010EF4BDDF0895EB
:10078800E894F7FF02C0B8DF6894B7FF06C0A095E9
:10079800B095119600F8039400FA08953A932A93B5
:1007A8001A930A9308953B812A8119810881089533
:00000001FF
