:0C0000000C945E000C9400000C940000B6
:10000C000C9400000C9400000C9400000C94000064
:10001C000C9400000C9400000C9400000C9444010F
:10002C000C9443010C9400000C948B000C94000075
:10003C000C94F6000C9445010C9400000C940000F8
:10004C000C9400000C9400001027E80364000A00D4
:10005C000100001000011000010000000000000071
:10006C000000FFAA40203130313031303130313195
:10007C003131313131312564005265636569766502
:10008C00640054656D70203A2025640050657263DD
:10009C003A25640080C00100020066000A000400DA
:1000AC0068000900600285000200A002A0000000A8
:1000BC00F894EE27ECBBF1E0FBBFEBBFE5BF8DE0A6
:1000CC00A2E0BB27ED938A95E9F780E098E0A0E6E3
:1000DC00ED930197E9F7E2EAF0E0859195910097AD
:1000EC0061F0A591B59105901590BF01F0010590B7
:1000FC000D920197E1F7FB01F0CFEFE5EDBFE8E0E2
:10010C00EEBFC0E6D2E00C947F010A921A92FA92EA
:10011C006A937A938A939A93AA93BA93EA93FA93EB
:10012C00EFB7EA931A930A931BB10CB1E12FEC7160
:10013C00E9F4E0918E02EF5FE0938E02E150F0E083
:10014C00EA57FD4F0083A0918E02A83019F4E0E02D
:10015C00E0938E02A0919002AF5FA0939002A83022
:10016C0029F4E0E0E0939002689420F8802E992422
:10017C000E94CE04E2E8F0E00E94D3040E94E20464
:10018C0009911991E991EFBFF991E991B991A9916F
:10019C009991899179916991F99019900990189593
:1001AC001A93E0919002E030E1F3E0918F02EF5F5F
:1001BC00E0938F02E150F0E0EA57FD4F1081A091DF
:1001CC008F02A83019F4E0E0E0938F02F894E091EC
:1001DC009002E150E09390027894E12F19910895E8
:1001EC00AA93EA93FA93EFB7EA93E0919B02E0307B
:1001FC00A9F0E150E0939B02E0919A02EF5FE0934B
:10020C009A02E150F0E0EF56FD4FE081ECB9A0917D
:10021C009A02A83019F4E0E0E0939A02E991EFBF5A
:10022C00F991E991A9911895AA93A0919B02A830F4
:10023C00E1F3F894E0919B02E03011F45D9918C061
:10024C00E0919902EF5FE0939902E150F0E0EF56F4
:10025C00FD4FA881A083A0919902A83019F4E0E089
:10026C00E0939902E0919B02EF5FE0939B0202C046
:10027C00E881ECB978940C94CC04189518958A9371
:10028C00AA93BA93EA93EFB7EA93A0919F02B0E0D6
:10029C00A456BD4FE5B1EC93A0919F02AF5FA09324
:1002AC009F02A33018F0E0E0E0939F02E0919F02E0
:1002BC00E05EE7B98BE18A95F1F7369AE991EFBFE9
:1002CC00E991B991A991899118950E94BA05E0918B
:1002DC009C02F0E08F01AFEFB3E00E947205DF01EA
:1002EC00ECEDF5E00E948A059F010E94C105249661
:1002FC000895E0E0EABBEBBBE8E0E7BBE0E0E8BB7D
:10030C00E4BBE5BBE1BBE2BBE3E6E3BFE0E0E2BF9D
:10031C00E0E6ECBFE0E0EFBDEEBDEDBDECBDE7BD52
:10032C00E6BDEBBDEABDE9BDE8BDE2BDE5BDE4BDA2
:10033C00E3BDE3E0E9BFE0E0E5BFE4BFEBB9E8ED26
:10034C00EAB9EEE8E0BDE0E0E0BDE3E3E9B9E0E8FE
:10035C00E8B9E0E2E7B9EBECE6B9E0E0E0BFEDB913
:10036C00E6BFA0E10E949F047894E0E0ECBF18DFA8
:10037C00E0937F02E1E0F0E02F0180907F0299246E
:10038C00EAEAF0E0E815F90509F09CC009DFE09312
:10039C007F0280907F029924E1E2F0E0E815F905F4
:1003AC0009F06AC092DF3F01A0E6B2E00E948E0421
:1003BC000E94E2040E94CE04EEE8F0E0FA93EA9385
:1003CC00F3010E9465050E94B30584E0F5D12896DF
:1003DC00A9E6B2E00E948E040E94E804D301EFEF7C
:1003EC00F0E00E948F05E0938202F0938302D30128
:1003FC00EFEFF0E00E948A05E0938402F09385020F
:10040C000E94EC0419F40E94F20409F407C00E9443
:10041C00F8040E940F05A091840228C00E94EC04ED
:10042C0019F00E94F20409F003C00E94F80419C0EC
:10043C000E94EC0419F00E94F20409F41CC0E2E0E2
:10044C00F0E0E0937D02F0937E02AB2D0E940F054D
:10045C00A1E20E940F05A0917D020E940F05A091C0
:10046C008402E2DE0E941505A0918202DDDE0E946C
:10047C001505AA2DD9DE26C0E0E4F0E0E815F90553
:10048C0009F58EDE0E94E8048BDEF0E0E09380023A
:10049C00F093810280908002909081020E94CE04A1
:1004AC00E8E9F0E00E94D304F401AFEFB0E00E9461
:1004BC007205DF01E4E6F0E00E948A05ECBF0E94C1
:1004CC00E8046EDE0E9415050E94600450CFFFCF39
:1004DC00BA93AA931A930A93AA81BB8112960E948B
:1004EC00AB05309759F1AA81BB8114960E94AB05DC
:1004FC008F01309761F00230E0E01E0798F0F801B0
:10050C0031978F01AA81BB811496ED93FC93AA813C
:10051C00BB811296ED91FD913196FE93EE9331973E
:10052C00AC81A083AA81BB810E94AB05FF232AF07A
:10053C00ED91FD913196FE93EE9306C0AA81BB819D
:10054C00EFEFFFEFED93FC93198108812596089549
:10055C00BA93AA9326970E94B80510E0AC85BD8586
:10056C00E0E0F0E0ED93FC93EA89FB893196EA8BAD
:10057C00FB8B3197E4912E2FE03009F415C1E12F5C
:10058C00E03039F4253211F411E002C00E94190553
:10059C000AC1E130A9F4253219F40E94190502C1EF
:1005AC0012E040E000E02D3211F401E0FCC02B32EF
:1005BC0011F44BE2F8C0203211F440E2F4C002C056
:1005CC00E23039F450E013E0203311F40068EBC052
:1005DC0003C0E33009F0E7C0203310F02A3308F0F1
:1005EC0007C0AAE05A9F502DE22FE0535E0FDBC0EC
:1005FC00E22FE33649F40E942005E889F989A481A9
:10060C00AA930E942605CEC0E33741F40E94200530
:10061C000E942C050E9416041E2F0AC0E03761F4BC
:10062C000E9420050E942C050E9422041E2F0860A7
:10063C0002600F7730E034C0E43611F0E93611F483
:10064C00046002C0E53731F4E4E5F0E0EE83FF83AB
:10065C0015E00CC0E83511F4086003C0E83709F068
:10066C00A1C0EEE5F0E0EE83FF8314E002FF14C0BE
:10067C000E9420050E943605AB85AA233AF4EA8530
:10068C00FB850E946105EA87FB874DE2403011F043
:10069C001F5F01C00B7F04C00E9420050E9436051D
:1006AC0000FD11C0151778F407FF08C002FF04C045
:1006BC000B7F242F115001C020E301C020E20E94C7
:1006CC0019055150EFCF312F01FF17C03030A1F079
:1006DC0003FF06C0EE81FF812591EE83FF8305C0E9
:1006EC00AE81BF812D91AE83BF830E94190550301E
:1006FC0009F051503150EACF4BC020E3EE81FF811D
:10070C000E94AF05E887F987EE81FF813296EE8370
:10071C00FF83E885F985AA85BB85AE17BF0750F026
:10072C002F5FA885B985EA85FB85EA1BFB0BEA8759
:10073C00FB87EFCF2A3328F003FF02C0295F01C0EB
:10074C00295D04FD1AC0213320F4A885B9851197C1
:10075C0009F409C0531710F000FF01C013C020E2C8
:10076C0007FF0BC020E3006102FF07C00B7F4A9319
:10077C000E942605503009F051500E941905503046
:10078C0009F051503150A885B985129708F0B5CFB2
:10079C0000FF08C0503031F05150E0E2EA930E9463
:1007AC002605F8CF10E0E0CEAC85BD850E94AB05E8
:1007BC000E94BF0564960895FF92F82E26970E941A
:1007CC00BA050E943E05309719F4EFEFFFEF23C0F6
:1007DC00DE0116960E945D058D010E943E05EE839A
:1007EC00FF83E0E0E887E987DE011A960E945D0549
:1007FC000E94AB05FA93EA931A930A93EEE6F2E0A1
:10080C00FA93EA93DE011A96A3DE9F01AE81BF81B3
:10081C00E0E0EC93F9010E94C1052A96FF9008953F
:10082C00BA93AA93A991B991EE27FF276D916623EC
:10083C0011F03196FBCF0895BA93AA93AA27BB2740
:10084C00E991F9910590002011F01196FBCFFD0173
:10085C000895AA93E5B3EF70AE2FE881E07FEA2B01
:10086C00E5BB8DE08A95F1F7AA9A8DE08A95F1F7B0
:10087C00AA988DE08A95F1F789C0AA93A881E9DF3F
:10088C00E881E295E883A881E4DF85E88A95F1F7B1
:10089C007DC0AA93E881F0E0E056FD4FE081A9818C
:1008AC00AE0FEBDFE981E093A402E881E093A502AF
:1008BC0022960895A2E00E944505ACE0DEDFA1E09F
:1008CC000E944505E0E0E093A502E093A4020895A0
:1008DC00AA93A881AA3031F0E091A602A091A402BB
:1008EC00AE1760F0E0E0EA93A091A502AF5FA09391
:1008FC00A502CFDFA881AA3009F448C0E091A40278
:10090C00EF5FE093A402A89AA881B7DFA8983EC035
:10091C00BA93AA931A93A981BA81ED91A983BA8348
:10092C001E2FE03019F0A12FD3DFF5CF18812396BD
:10093C000895AA93E4B3E06FE4BBA29AA09AA19A9B
:10094C00AA98A898A998E881E093A602E058E093A9
:10095C00A202E881E054E093A302A4E1B0E00E947B
:10096C0053050E944B050E944B050E944B05A0E2CB
:10097C0070DF88EC90E00197F1F7A8E27EDFA4E04D
:10098C007CDFA5E87ADFA6E078DF94DF2196089576
:10099C00E9E6F2E0FA93EA930895FA93EA93F40104
:1009AC000E9465050E94B30584E00E94E20328962C
:1009BC00A9E6B2E00C948E04A4EFB1E00E945305BA
:1009CC000C946004A4EFB1E00C945305A091820246
:1009DC00B091830210970895A0918402B091850282
:1009EC0010970895E1E0F0E0E0937D02F0937E0231
:1009FC00AB2D0E941A01A4E6B0E00E945305A1E2BF
:100A0C000E941A01A4E6B0E00E945305A0917D0259
:100A1C0008950E941A01A4E6B0E00C945305A4E6D4
:100A2C00B0E00C9453052A93AD85BE85EF85F8890B
:100A3C0009950895E889F9893497E88BF98B08951D
:100A4C00AD85BE85EF85F88909950895A889B98982
:100A5C0014960E94AB05EE83FF83AE81BF8108958F
:100A6C00A889B98914960E94AB05EA87FB8708957B
:100A7C00DE011C960E945D050E94AB0508950E9444
:100A8C004304A3E0B0E00C945305A0E30E942F04B0
:100A9C0088EC90E00197F1F70895109639F080ED0D
:100AAC0097E00197F1F7A8951197C9F708950024DD
:100ABC00AF0DB01D0895F195E195F04008956F2F9D
:100ACC00660F660B762F0895FA9FF02DEB9FF00DB5
:100ADC00EA9FE02DF10D08952AD0F6DF0EF4EBDF3E
:100AEC0008950024112490E1AA0FBB1F001C111CB7
:100AFC000E1A1F0A18F40E0E1F1E01C0A1609A9543
:100B0C0099F7FD01D001089512D0EBDF0EF4D3DF7D
:100B1C000895E894B7FF04C0A095B0951196689419
:100B2C00F7FDC9DFDEDFFD010EF4C5DF0895E894A3
:100B3C00F7FF02C0C0DF6894B7FF06C0A095B09560
:100B4C00119600F8039400FA0895ED91FC91119719
:100B5C0008950590F491E02D08957A936A93FA9391
:100B6C00EA9308955A934A933A932A931A930A93C1
:100B7C0008955D814C813B812A81198108810895FA
:00000001FF
