:040000000C945E00FE
:100004000C9400000C9400000C9400000C9400006C
:100014000C9400000C9400000C9400000C9400005C
:100024000C9400000C9444010C9443010C940000C3
:100034000C948B000C9400000C94F6000C94450175
:100044000C9400000C9400000C9400000C9400002C
:100054001027E80364000A000100001000011000EA
:1000640001000000000000000000FFAA4020313021
:100074003130313031303131313131313131256448
:100084000052656365697665640054656D70203A55
:1000940020256400506572633A25640080C0010025
:1000A400020066000A00040068000900600285007E
:1000B4000200A002A0000000F894EE27ECBBF1E0DF
:1000C400FBBFEBBFE5BF8DE0A2E0BB27ED938A95B4
:1000D400E9F780E098E0A0E6ED930197E9F7E2EA1A
:1000E400F0E085919591009761F0A591B591059007
:1000F4001590BF01F00105900D920197E1F7FB0106
:10010400F0CFEFE5EDBFE8E0EEBFC0E6D2E00C943F
:100114008E010A921A92FA926A937A938A939A9324
:10012400AA93BA93EA93FA93EFB7EA931A930A93CA
:100134001BB10CB1E12FEC71E9F4E0918E02EF5F99
:10014400E0938E02E150F0E0EA57FD4F0083A09166
:100154008E02A83019F4E0E0E0938E02A0919002A0
:10016400AF5FA0939002A83029F4E0E0E0939002FE
:10017400689420F8802E99240E94DD04E2E8F0E0DF
:100184000E94E2040E94F10409911991E991EFBFE0
:10019400F991E991B991A99199918991799169918B
:1001A400F9901990099018951A93E0919002E03013
:1001B400E1F3E0918F02EF5FE0938F02E150F0E012
:1001C400EA57FD4F1081A0918F02A83019F4E0E0A6
:1001D400E0938F02F894E0919002E150E093900252
:1001E4007894E12F19910895AA93EA93FA93EFB7BB
:1001F400EA93E0919B02E030A9F0E150E0939B0286
:10020400E0919A02EF5FE0939A02E150F0E0EF563A
:10021400FD4FE081ECB9A0919A02A83019F4E0E016
:10022400E0939A02E991EFBFF991E991A9911895A8
:10023400AA93A0919B02A830E1F3F894E0919B0269
:10024400E03011F45D9918C0E0919902EF5FE093FA
:100254009902E150F0E0EF56FD4FA881A083A091F0
:100264009902A83019F4E0E0E0939902E0919B022E
:10027400EF5FE0939B0202C0E881ECB978940C94A0
:10028400DB04189518958A93AA93BA93EA93EFB767
:10029400EA93A0919F02B0E0A456BD4FE5B1EC9360
:1002A400A0919F02AF5FA0939F02A33018F0E0E0FB
:1002B400E0939F02E0919F02E05EE7B98BE18A95AB
:1002C400F1F7369AE991EFBFE991B991A991899132
:1002D40018950E940E07E0919C02F0E08F010E94A5
:1002E400AC060E94D205DF01CB01ECEBF4E763E03E
:1002F40070E40E945706DF01CB01E0E0F0E060E427
:1003040070E40E94FF060E9405060E9499059F0161
:100314000E94150724960895E0E0EABBEBBBE8E0F1
:10032400E7BBE0E0E8BBE4BBE5BBE1BBE2BBE3E683
:10033400E3BFE0E0E2BFE0E6ECBFE0E0EFBDEEBD2E
:10034400EDBDECBDE7BDE6BDEBBDEABDE9BDE8BD75
:10035400E2BDE5BDE4BDE3BDE3E0E9BFE0E0E5BF48
:10036400E4BFEBB9E8EDEAB9EEE8E0BDE0E0E0BDFA
:10037400E3E3E9B9E0E8E8B9E0E2E7B9EBECE6B9D0
:10038400E0E0E0BFEDB9E6BFA0E10E94AE047894DE
:10039400E0E0ECBF09DFE0937F02E1E0F0E02F0151
:1003A40080907F029924EAEAF0E0E815F90509F063
:1003B4009CC0FADEE0937F0280907F029924E1E200
:1003C400F0E0E815F90509F06AC083DF3F01A0E613
:1003D400B2E00E949D040E94F1040E94DD04EEE854
:1003E400F0E0FA93EA93F3010E94AC060E94FA0645
:1003F40084E0F5D12896A9E6B2E00E949D040E940B
:10040400F704D301EFEFF0E00E94D606E0938202F6
:10041400F0938302D301EFEFF0E00E94D106E09362
:100424008402F09385020E94FB0419F40E940105E2
:1004340009F407C00E9407050E941E05A0918402CA
:1004440028C00E94FB0419F00E94010509F003C0B2
:100454000E94070519C00E94FB0419F00E940105BF
:1004640009F41CC0E2E0F0E0E0937D02F0937E0228
:10047400AB2D0E941E05A1E20E941E05A0917D02E3
:100484000E941E05A0918402D3DE0E942405A0913F
:100494008202CEDE0E942405AA2DCADE26C0E0E434
:1004A400F0E0E815F90509F57FDE0E94F7047CDE2B
:1004B400F0E0E0938002F0938102809080029090BB
:1004C40081020E94DD04E8E9F0E00E94E204F40104
:1004D400AFEFB0E00E94B906DF01E4E6F0E00E946D
:1004E400D106ECBF0E94F7045FDE0E9424050E943F
:1004F4006F0450CFFFCFBA93AA931A930A93AA8199
:10050400BB8112960E94F206309759F1AA81BB81F1
:1005140014960E94F2068F01309761F00230E0E0F9
:100524001E0798F0F80131978F01AA81BB811496B8
:10053400ED93FC93AA81BB811296ED91FD913196C6
:10054400FE93EE933197AC81A083AA81BB810E9474
:10055400F206FF232AF0ED91FD913196FE93EE937E
:1005640006C0AA81BB81EFEFFFEFED93FC931981E5
:10057400088125960895BA93AA9326970E940C079A
:1005840010E0AC85BD85E0E0F0E0ED93FC93EA89F2
:10059400FB893196EA8BFB8B3197E4912E2FE03067
:1005A40009F415C1E12FE03039F4253211F411E0DA
:1005B40002C00E9428050AC1E130A9F4253219F4C9
:1005C4000E94280502C112E040E000E02D3211F43F
:1005D40001E0FCC02B3211F44BE2F8C0203211F4DC
:1005E40040E2F4C002C0E23039F450E013E02033BA
:1005F40011F40068EBC003C0E33009F0E7C0203316
:1006040010F02A3308F007C0AAE05A9F502DE22FB9
:10061400E0535E0FDBC0E22FE33649F40E942F055E
:10062400E889F989A481AA930E943505CEC0E337ED
:1006340041F40E942F050E943B050E9425041E2FB1
:100644000AC0E03761F40E942F050E943B050E9416
:1006540031041E2F086002600F7730E034C0E436A6
:1006640011F0E93611F4046002C0E53731F4E4E531
:10067400F0E0EE83FF8315E00CC0E83511F4086068
:1006840003C0E83709F0A1C0EEE5F0E0EE83FF8394
:1006940014E002FF14C00E942F050E944505AB859B
:1006A400AA233AF4EA85FB850E94A006EA87FB8721
:1006B4004DE2403011F01F5F01C00B7F04C00E9467
:1006C4002F050E94450500FD11C0151778F407FF9A
:1006D40008C002FF04C00B7F242F115001C020E387
:1006E40001C020E20E9428055150EFCF312F01FFB5
:1006F40017C03030A1F003FF06C0EE81FF812591C1
:10070400EE83FF8305C0AE81BF812D91AE83BF838D
:100714000E942805503009F051503150EACF4BC0A7
:1007240020E3EE81FF810E94F606E887F987EE81D7
:10073400FF813296EE83FF83E885F985AA85BB8520
:10074400AE17BF0750F02F5FA885B985EA85FB85F2
:10075400EA1BFB0BEA87FB87EFCF2A3328F003FF62
:1007640002C0295F01C0295D04FD1AC0213320F4B1
:10077400A885B985119709F409C0531710F000FF33
:1007840001C013C020E207FF0BC020E3006102FF99
:1007940007C00B7F4A930E943505503009F0515031
:1007A4000E942805503009F051503150A885B98570
:1007B400129708F0B5CF00FF08C0503031F0515007
:1007C400E0E2EA930E943505F8CF10E0E0CEAC8574
:1007D400BD850E94F2060E94130764960895FF9255
:1007E400F82E26970E940E070E944D05309719F4A3
:1007F400EFEFFFEF23C0DE0116960E949C068D01E9
:100804000E944D05EE83FF83E0E0E887E987DE017F
:100814001A960E949C060E94F206FA93EA931A938F
:100824000A93EDE7F2E0FA93EA93DE011A96A3DE67
:100834009F01AE81BF81E0E0EC93F9010E941507AE
:100844002A96FF900895BA93AA93A991B991EE2795
:10085400FF276D91662311F03196FBCF0895BA936B
:10086400AA93AA27BB27E991F9910590002011F0DA
:100874001196FBCFFD010895AA93E5B3EF70AE2F57
:10088400E881E07FEA2BE5BB8DE08A95F1F7AA9A2F
:100894008DE08A95F1F7AA988DE08A95F1F789C0E1
:1008A400AA93A881E9DFE881E295E883A881E4DFDF
:1008B40085E88A95F1F77DC0AA93E881F0E0E056D7
:1008C400FD4FE081A981AE0FEBDFE981E093A40243
:1008D400E881E093A50222960895A2E00E945405BF
:1008E400ACE0DEDFA1E00E945405E0E0E093A50265
:1008F400E093A4020895AA93A881AA3031F0E0916C
:10090400A602A091A402AE1760F0E0E0EA93A091E1
:10091400A502AF5FA093A502CFDFA881AA3009F496
:1009240048C0E091A402EF5FE093A402A89AA881D2
:10093400B7DFA8983EC0BA93AA931A93A981BA8143
:10094400ED91A983BA831E2FE03019F0A12FD3DFD4
:10095400F5CF188123960895AA93E4B3E06FE4BB1E
:10096400A29AA09AA19AAA98A898A998E881E09333
:10097400A602E058E093A202E881E054E093A302C7
:10098400A4E1B0E00E9462050E945A050E945A0543
:100994000E945A05A0E270DF88EC90E00197F1F71D
:1009A400A8E27EDFA4E07CDFA5E87ADFA6E078DFBA
:1009B40094DF21960895E9E6F2E0FA93EA93089524
:1009C400FA93EA93F4010E94AC060E94FA0684E0CA
:1009D4000E94F1032896A9E6B2E00C949D04A4EFCA
:1009E400B1E00E9462050C946F04A4EFB1E00C9492
:1009F4006205A0918202B091830210970895A0919C
:100A04008402B091850210970895E1E0F0E0E0934C
:100A14007D02F0937E02AB2D0E941A01A4E6B0E0A1
:100A24000E946205A1E20E941A01A4E6B0E00E94BD
:100A34006205A0917D0208950E941A01A4E6B0E027
:100A44000C946205A4E6B0E00C9462052A93AD858B
:100A5400BE85EF85F88909950895E889F989349761
:100A6400E88BF98B0895AD85BE85EF85F8890995E6
:100A74000895A889B98914960E94F206EE83FF832B
:100A8400AE81BF810895A889B98914960E94F2069F
:100A9400EA87FB870895DE011C960E949C060E944B
:100AA400F20608950E945204A3E0B0E00C9462059B
:100AB400A0E30E943E0488EC90E00197F1F70895CA
:100AC400109639F080ED97E00197F1F7A89511970A
:100AD400C9F70895552342F4503811F4E0FF04C0D7
:100AE4003196691F791F6BF050E8572711F45F9313
:100AF400CAC05F3F31F0660F000C57956795752F9C
:100B040008955F9300200AF0CAC0C3C050E8192EAC
:100B14001522880F991F9527550F879550E8072EA2
:100B24000522660F771F7527550F679508956894FA
:100B340001C0E8945F93F2DF703818F07F3F08F447
:100B4400A2C056E1571BAAF4519558300EF45930FF
:100B540030F0EFEFFFEF6FEF7FE777F91AC07727F9
:100B64005523B9F0EE0FFF1F661F771F5A95D1F773
:100B740010C07727583028F0EF2FF62F672F5850E2
:100B8400F9CF552331F076956795F795E7955A9502
:100B9400D1F700200AF4D6D05F910895689401C07B
:100BA400E894309760407040B1F0002426F0772339
:100BB40012F40094C7D0172E7EE1112032F07A95FA
:100BC400EE0FFF1F661F111CF9CFEF2FF62F612DBB
:100BD4005F938ADF5F9108954F93AF01FD01DA01BE
:100BE400AB01BC01CA01402D012C142E4F91089574
:100BF400EA0FFB1F681F0895E095F0956095EF5F7D
:100C0400FF4F6F4F08955F9381DF903849F150E8AB
:100C14001526703821F1572F591B2BF112F4DCDF04
:100C2400FACF583118F0AA27BB278827583028F064
:100C3400AB2FB82F88275850F9CF552329F0869524
:100C4400B795A7955A95D9F7502D512572F0D0DF55
:100C540038F46795F795E795739513F420C0BCDFD6
:100C640043DF5F910895D8F7FBCFEA1BFB0B680BBA
:100C740051F010F40094C0DF662392F3EE0FFF1FCF
:100C8400661F7A95CBF7EE27FF27662777275F91B4
:100C94000895EFEFFFEF6FE77FEF5F910895EFEFB8
:100CA400FFEF6FE77FE75F9108955F932FDF703861
:100CB40021F411200AF4EDCFF2CF903809F4E3CFF8
:100CC40001240894970B1BF4D4F30020F3CF792F5D
:100CD4001F932F933F934F931124112722273327D8
:100CE4004427552790E2AE17BF078607410730F027
:100CF400AE1BBF0B860B410B089401C08894551F93
:100D0400221F331F111CAA1FBB1F881F441F9A9543
:100D140051F7F901612D4F913F912F911F91662356
:100D240032F0550FEE1FFF1F661F7A9543F2D2DE95
:100D34005F9108950024AF0DB01D0895F195E195DC
:100D4400F0400895F09560957095E195FF4F6F4FD1
:100D54007F4F08956F2F660F660B762F0895FA9FC5
:100D6400F02DEB9FF00DEA9FE02DF10D08952AD0B0
:100D7400F6DF0EF4E3DF08950024112490E1AA0FB6
:100D8400BB1F001C111C0E1A1F0A18F40E0E1F1E86
:100D940001C0A1609A9599F7FD01D001089512D080
:100DA400EBDF0EF4CBDF0895E894B7FF04C0A09501
:100DB400B09511966894F7FDC1DFDEDFFD010EF4F6
:100DC400BDDF0895E894F7FF02C0B8DF6894B7FF69
:100DD40006C0A095B095119600F8039400FA089502
:100DE400ED91FC91119708950590F491E02D0895EB
:100DF4007A936A93FA93EA930895182E862F612DB5
:100E0400192E972F712D1B2EBF2FF12D1A2EAE2FB9
:100E1400E12D08955A934A933A932A931A930A9385
:100E240008955D814C813B812A811981088108954F
:00000001FF
