:0C0000000C944E000C9400000C940000C6
:10000C000C9400000C9400000C9400000C94000064
:10001C000C9400000C9400000C9400000C9415013E
:10002C000C9414010C9400000C947B000C940000B4
:10003C000C94C7000C9416010C9400000C94000056
:10004C000C9400000C9400001027E80364000A00D4
:10005C000100001000011000010000000000AA00C7
:10006C0020E100400000313031303130313031315D
:10007C003131313131312564000080C00100020082
:10008C0066000A000400680002009402860000006A
:10009C00F894EE27ECBBF1E0FBBFEBBFE5BF8DE0C6
:1000AC00A2E0BB27ED938A95E9F780E098E0A0E603
:1000BC00ED930197E9F7E8E8F0E0859195910097C9
:1000CC0061F0A591B59105901590BF01F0010590D7
:1000DC000D920197E1F7FB01F0CFEFE5EDBFE8E002
:1000EC00EEBFC0E6D2E00C945501AA93EA93FA93C2
:1000FC00EFB7EA931A930A931BB10CB1E12FEC7191
:10010C00E9F4E0918202EF5FE0938202E150F0E0CB
:10011C00E658FD4F0083A0918202A83019F4E0E06C
:10012C00E0938202A0918402AF5FA0938402A83076
:10013C0029F4E0E0E0938402689420F80991199185
:10014C003EC01A93E0918402E030E1F3E091830227
:10015C00EF5FE0938302E150F0E0E658FD4F108131
:10016C00A0918302A83019F4E0E0E0938302F894A4
:10017C00E0918402E150E09384027894E12F19918C
:10018C000895AA93EA93FA93EFB7EA93E0918F025A
:10019C00E030A9F0E150E0938F02E0918E02EF5F26
:1001AC00E0938E02E150F0E0EB57FD4FE081ECB9AB
:1001BC00A0918E02A83019F4E0E0E0938E02E99150
:1001CC00EFBFF991E991A9911895AA93A0918F028B
:1001DC00A830E1F3F894E0918F02E03011F45D99CE
:1001EC0018C0E0918D02EF5FE0938D02E150F0E0DA
:1001FC00EB57FD4FA881A083A0918D02A83019F474
:10020C00E0E0E0938D02E0918F02EF5FE0938F02CC
:10021C0002C0E881ECB978940C9481041895189577
:10022C008A93AA93BA93EA93EFB7EA93A0919302B5
:10023C00B0E0A057BD4FE5B1EC93A0919302AF5F36
:10024C00A0939302A33018F0E0E0E0939302E091C6
:10025C009302E05EE7B98BE18A95F1F7369AE99162
:10026C00EFBFE991B991A991899118950E942A063D
:10027C00E0919002F0E08F010E94D5050E9452059A
:10028C00DF01CB01ECEBF4E763E070E40E94800546
:10029C000E9419059F010E94310624960895E0E002
:1002AC00EABBEBBBE8E0E7BBE0E0E8BBE4BBE5BBEB
:1002BC00E1BBE2BBE3E6E3BFE0E0E2BFE0E6ECBFBC
:1002CC00E0E0EFBDEEBDEDBDECBDE7BDE6BDEBBDC9
:1002DC00EABDE9BDE8BDE2BDE5BDE4BDE3BDE3E0DB
:1002EC00E9BFE0E0E5BFE4BFEBB9E8EDEAB9EEE861
:1002FC00E0BDE0E0E0BDE3E3E9B9E0E8E8B9E0E265
:10030C00E7B9EBECE6B9E0E0E0BFEDB9E6BFA0E1A0
:10031C000E9454047894EAEAAE2EAA2DB0E0AA3AD0
:10032C00E0E0BE0709F083C0E0E2AE2EAA2DB0E0FB
:10033C00909709F064C09ADF2F01E0E6F2E0FA939F
:10034C00EA93E2E8F0E0FA93EA93F2010E94D50511
:10035C000E94230684E0E5D12896A0E6B2E00E9434
:10036C004304D201EFEFF0E00E94FF05E093760228
:10037C00F0937702D201EFEFF0E00E94FA05E093E0
:10038C007802F09379020E94830419F40E94890484
:10039C0009F407C00E948F040E94A204A091780265
:1003AC0026C00E94830419F00E94890409F003C03E
:1003BC000E948F0415C00E94830419F00E948904C6
:1003CC0009F41CC0E2E0F0E06F01A62D0E94A2042B
:1003DC00A0E20E94A204AC2D0E94A204A09178027B
:1003EC00F4DEA1E0B0E00E94E204A0917602EDDE22
:1003FC00A1E0B0E00E94E204A92DE7DE18C0AA2D0E
:10040C00B0E0A034E0E0BE0791F49BDE9ADEF0E0B1
:10041C00E0937402F0937502AFEFB0E00E94E20536
:10042C00DF01E4E6F0E00E94FA05ECBF8ADEA8EBFF
:10043C00BBE00E94E2046FCFFFCFBA93AA931A934A
:10044C000A93AA81BB8112960E941B06309759F120
:10045C00AA81BB8114960E941B068F01309761F014
:10046C000230E0E01E0798F0F80131978F01AA8165
:10047C00BB811496ED93FC93AA81BB811296ED91EE
:10048C00FD913196FE93EE933197AC81A083AA81B6
:10049C00BB810E941B06FF232AF0ED91FD91319642
:1004AC00FE93EE9306C0AA81BB81EFEFFFEFED93B5
:1004BC00FC931981088125960895BA93AA932697DF
:1004CC000E94280610E0AC85BD85E0E0F0E0ED93DD
:1004DC00FC93EA89FB893196EA8BFB8B3197E4918B
:1004EC002E2FE03009F415C1E12FE03039F425321C
:1004FC0011F411E002C00E94A8040AC1E130A9F471
:10050C00253219F40E94A80402C112E040E000E078
:10051C002D3211F401E0FCC02B3211F44BE2F8C087
:10052C00203211F440E2F4C002C0E23039F450E061
:10053C0013E0203311F40068EBC003C0E33009F082
:10054C00E7C0203310F02A3308F007C0AAE05A9F06
:10055C00502DE22FE0535E0FDBC0E22FE33649F45F
:10056C000E94AF04E889F989A481AA930E94B5047A
:10057C00CEC0E33741F40E94AF040E94BB040E943A
:10058C00CB031E2F0AC0E03761F40E94AF040E9417
:10059C00BB040E94D7031E2F086002600F7730E067
:1005AC0034C0E43611F0E93611F4046002C0E537CA
:1005BC0031F4E4E5F0E0EE83FF8315E00CC0E835A0
:1005CC0011F4086003C0E83709F0A1C0EEE5F0E0D3
:1005DC00EE83FF8314E002FF14C00E94AF040E945C
:1005EC00C504AB85AA233AF4EA85FB850E94C905AC
:1005FC00EA87FB874DE2403011F01F5F01C00B7F93
:10060C0004C00E94AF040E94C50400FD11C0151760
:10061C0078F407FF08C002FF04C00B7F242F115091
:10062C0001C020E301C020E20E94A8045150EFCF8A
:10063C00312F01FF17C03030A1F003FF06C0EE814F
:10064C00FF812591EE83FF8305C0AE81BF812D9183
:10065C00AE83BF830E94A804503009F05150315032
:10066C00EACF4BC020E3EE81FF810E941F06E88792
:10067C00F987EE81FF813296EE83FF83E885F98559
:10068C00AA85BB85AE17BF0750F02F5FA885B9852B
:10069C00EA85FB85EA1BFB0BEA87FB87EFCF2A3346
:1006AC0028F003FF02C0295F01C0295D04FD1AC0B8
:1006BC00213320F4A885B985119709F409C0531783
:1006CC0010F000FF01C013C020E207FF0BC020E3B5
:1006DC00006102FF07C00B7F4A930E94B5045030A3
:1006EC0009F051500E94A804503009F0515031507B
:1006FC00A885B985129708F0B5CF00FF08C0503017
:10070C0031F05150E0E2EA930E94B504F8CF10E0CA
:10071C00E0CEAC85BD850E941B060E942F06649618
:10072C000895FF92F82E26970E942A060E94CD0467
:10073C00309719F4EFEFFFEF23C0DE0116960E94FD
:10074C00C5058D010E94CD04EE83FF83E0E0E887B0
:10075C00E987DE011A960E94C5050E941B06FA93D2
:10076C00EA931A930A93E3E2F2E0FA93EA93DE0136
:10077C001A96A3DE9F01AE81BF81E0E0EC93F901F4
:10078C000E9431062A96FF900895BA93AA93A991D4
:10079C00B991EE27FF276D91662311F03196FBCFAF
:1007AC000895BA93AA93AA27BB27E991F9910590CA
:1007BC00002011F01196FBCFFD010895AA93E5B32B
:1007CC00EF70AE2FE881E07FEA2BE5BB8DE08A95D8
:1007DC00F1F7AA9A8DE08A95F1F7AA988DE08A959F
:1007EC00F1F789C0AA93A881E9DFE881E295E88353
:1007FC00A881E4DF85E88A95F1F77DC0AA93E881AA
:10080C00F0E0EC56FD4FE081A981AE0FEBDFE98102
:10081C00E0939802E881E093990222960895A2E071
:10082C000E94D404ACE0DEDFA1E00E94D404E0E03E
:10083C00E0939902E09398020895AA93A881AA30B4
:10084C0031F0E0919A02A0919802AE1760F0E0E0CE
:10085C00EA93A0919902AF5FA0939902CFDFA88190
:10086C00AA3009F448C0E0919802EF5FE093980237
:10087C00A89AA881B7DFA8983EC0BA93AA931A93F6
:10088C00A981BA81ED91A983BA831E2FE03019F0AA
:10089C00A12FD3DFF5CF188123960895AA93E4B343
:1008AC00E06FE4BBA29AA09AA19AAA98A898A998DA
:1008BC00E881E0939A02E058E0939602E881E054D4
:1008CC00E0939702A4E1B0E00E94E2040E94DA04F3
:1008DC000E94DA040E94DA04A0E270DF88EC90E057
:1008EC000197F1F7A8E27EDFA4E07CDFA5E87ADFD0
:1008FC00A6E078DF94DF21960895A0917602B0915E
:10090C00770210970895A0917802B0917902109710
:10091C000895E1E0F0E06F01A62D0E94EB00A1E04C
:10092C00B0E00E94E204A0E20E94EB00A1E0B0E083
:10093C000E94E204AC2D08950E94EB00A1E0B0E00F
:10094C000C94E2042A93AD85BE85EF85F889099550
:10095C000895E889F9893497E88BF98B0895AD856A
:10096C00BE85EF85F88909950895A889B9891496EB
:10097C000E941B06EE83FF83AE81BF810895A88978
:10098C00B98914960E941B06EA87FB870895DE013D
:10099C001C960E94C5050E941B0608950E94F80330
:1009AC00A3E0B0E00C94E204A0E30E94E40388EC22
:1009BC0090E00197F1F70895109639F080ED97E0EB
:1009CC000197F1F7A8951197C9F70895552342F4AB
:1009DC00503811F4E0FF04C03196691F791F6BF099
:1009EC0050E8572711F45F9373C05F3F31F0660FE7
:1009FC00000C57956795752F08955F9300200AF0AA
:100A0C0073C06CC050E8192E1522880F991F9527BA
:100A1C00550F879550E8072E0522660F771F75270F
:100A2C00550F67950895689401C0E8945F93F2DFC1
:100A3C00703818F07F3F08F44BC056E1571BAAF4EE
:100A4C00519558300EF4593030F0EFEFFFEF6FEF57
:100A5C007FE777F91AC077275523B9F0EE0FFF1F00
:100A6C00661F771F5A95D1F710C07727583028F09A
:100A7C00EF2FF62F672F5850F9CF552331F076957D
:100A8C006795F795E7955A95D1F700200AF47FD032
:100A9C005F910895689401C0E8943097604070406D
:100AAC00B1F0002426F0772312F4009470D0172EA6
:100ABC007EE1112032F07A95EE0FFF1F661F111C9C
:100ACC00F9CFEF2FF62F612D5F938ADF5F91089599
:100ADC00EE27FF27662777275F910895EFEFFFEF4B
:100AEC006FE77FEF5F910895EFEFFFEF6FE77FE721
:100AFC005F9108955F9386DF703821F411200AF41A
:100B0C00EDCFF2CF903809F4E3CF01240894970B82
:100B1C001BF4D4F30020F3CF792F1F932F933F9323
:100B2C004F9311241127222733274427552790E26E
:100B3C00AE17BF078607410730F0AE1BBF0B860B05
:100B4C00410B089401C08894551F221F331F111CA0
:100B5C00AA1FBB1F881F441F9A9551F7F901612DDD
:100B6C004F913F912F911F91662332F0550FEE1F3D
:100B7C00FF1F661F7A9543F229DF5F9108950024C9
:100B8C00AF0DB01D0895F195E195F0400895F095E5
:100B9C0060957095E195FF4F6F4F7F4F08956F2FC4
:100BAC00660F660B762F0895FA9FF02DEB9FF00DD4
:100BBC00EA9FE02DF10D08952AD0F6DF0EF4E3DF65
:100BCC0008950024112490E1AA0FBB1F001C111CD6
:100BDC000E1A1F0A18F40E0E1F1E01C0A1609A9562
:100BEC0099F7FD01D001089512D0EBDF0EF4CBDFA5
:100BFC000895E894B7FF04C0A095B0951196689439
:100C0C00F7FDC1DFDEDFFD010EF4BDDF0895E894D2
:100C1C00F7FF02C0B8DF6894B7FF06C0A095B09587
:100C2C00119600F8039400FA0895ED91FC91119738
:100C3C0008950590F491E02D08957A936A93FA93B0
:100C4C00EA9308955A934A933A932A931A930A93E0
:100C5C0008955D814C813B812A8119810881089519
:00000001FF
