:0E0000000C946A000C9400000C9400000C9408
:10000E0000000C9400000C9400000C9400000C9462
:10001E0000000C9400000C9400000C9461010C94F0
:10002E0060010C9400000C9497000C9400000C944A
:10003E0013010C9462010C9400000C9400000C94BB
:10004E0000000C9400001027E80364000A00010071
:10005E000010000110000100000000000000000070
:10006E00FFAA402031303130313031303131313131
:10007E0031313131256400636F6E6E656374656472
:10008E000052656365697665640054656D70203A4B
:10009E00202564004D6F746F725370656564203A4D
:1000AE002025640080C00100020066000A000400E2
:1000BE0068000A006002850009006A028F000200D3
:1000CE00AA02B2000000F894EE27ECBBF1E0FBBFF1
:1000DE00EBBFE5BF8DE0A2E0BB27ED938A95E9F774
:1000EE0080E098E0A0E6ED930197E9F7E4EBF0E00D
:1000FE0085919591009761F0A591B5910590159018
:10010E00BF01F00105900D920197E1F7FB01F0CFD1
:10011E00EFE5EDBFE8E0EEBFC0E6D2E00C94A10142
:10012E000A921A92FA926A937A938A939A93AA935C
:10013E00BA93EA93FA93EFB7EA931A930A931BB121
:10014E000CB1E12FEC71E9F4E0919802EF5FE093CE
:10015E009802E150F0E0E057FD4F0083A091980225
:10016E00A83019F4E0E0E0939802A0919A02AF5FF4
:10017E00A0939A02A83029F4E0E0E0939A026894E2
:10018E0020F8802E99240E94F004E2E8F0E00E940C
:10019E00F504A8EEB3E00E946B050E948204A02F26
:1001AE00B0E0AA3AE0E0BE0739F4E1E0F0E02F015A
:1001BE00A0E6B2E00E94B00409911991E991EFBF57
:1001CE00F991E991B991A991999189917991699151
:1001DE00F9901990099018951A93E0919A02E030CF
:1001EE00E1F3E0919902EF5FE0939902E150F0E0C4
:1001FE00E057FD4F1081A0919902A83019F4E0E06C
:10020E00E0939902F894E0919A02E150E0939A02F9
:10021E007894E12F19910895AA93EA93FA93EFB780
:10022E00EA93E091A502E030A9F0E150E093A50237
:10023E00E091A402EF5FE093A402E150F0E0E556F6
:10024E00FD4FE081ECB9A091A402A83019F4E0E0D2
:10025E00E093A402E991EFBFF991E991A991189564
:10026E00AA93A091A502A830E1F3F894E091A5021B
:10027E00E03011F45D9918C0E091A302EF5FE093B6
:10028E00A302E150F0E0E556FD4FA881A083A091B6
:10029E00A302A83019F4E0E0E093A302E091A502D6
:1002AE00EF5FE093A50202C0E881ECB978940C945C
:1002BE00EE04189518958A93AA93BA93EA93EFB71A
:1002CE00EA93A091A902B0E0AA55BD4FE5B1EC9317
:1002DE00A091A902AF5FA093A902A33018F0E0E0AD
:1002EE00E093A902E091A902E05EE7B98BE18A955D
:1002FE00F1F7369AE991EFBFE991B991A9918991F8
:10030E0018950E94B306E091A602F0E08F010E94BC
:10031E005E060E94DB05DF01CB01ECEBF4E763E048
:10032E0070E40E9409060E94A2059F010E94BA066F
:10033E0024960895E0E0EABBEBBBE8E0E7BBE0E023
:10034E00E8BBE4BBE5BBE1BBE2BBE3E6E3BFE0E059
:10035E00E2BFE0E6ECBFE0E0EFBDEEBDEDBDECBD13
:10036E00E7BDE6BDEBBDEABDE9BDE8BDE2BDE5BD5D
:10037E00E4BDE3BDE3E0E9BFE0E0E5BFE4BFEBB918
:10038E00E8EDEAB9EEE8E0BDE0E0E0BDE3E3E9B9AF
:10039E00E0E8E8B9E0E2E7B9EBECE6B9E0E0E0BFAF
:1003AE00EDB9E6BFA0E10E94C1047894E0E0ECBF95
:1003BE0013DFE0938902E1E0F0E02F0180908902E3
:1003CE009924EAEAF0E0E815F90509F09CC004DF8B
:1003DE00E0938902809089029924E1E2F0E0E81529
:1003EE00F90509F06AC08DDF3F01AAE6B2E00E946E
:1003FE00B004A8EEB3E00E946B050E94F004E8E999
:10040E00F0E0FA93EA93F3010E945E060E94AC06B6
:10041E0084E0F3D12896A3E7B2E00E94B004D301A2
:10042E00EFEFF0E00E948806E0938C02F0938D02CD
:10043E00D301EFEFF0E00E948306E0938E02F0937B
:10044E008F020E94040519F40E940A0509F407C0E0
:10045E000E9410050E942705A0918E0228C00E94BE
:10046E00040519F00E940A0509F003C00E94100548
:10047E0019C00E94040519F00E940A0509F41CC057
:10048E00E2E0F0E0E0938702F0938802AB2D0E9449
:10049E002705A1E20E942705A09187020E94270549
:1004AE00A0918E02DDDE0E942D05A0918C02D8DE79
:1004BE000E942D05AA2DD4DE26C0E0E4F0E0E8155A
:1004CE00F90509F589DEA4EFB1E00E946B0584DE23
:1004DE00F0E0E0938A02F0938B0280908A02909073
:1004EE008B020E94F004E2EAF0E00E94F504F401AF
:1004FE00AFEFB0E00E946B06DF01E4E6F0E00E9491
:10050E008306ECBF69DE0E942D050E94820450CF47
:10051E00FFCFBA93AA931A930A93AA81BB8112961C
:10052E000E94A406309759F1AA81BB8114960E94AD
:10053E00A4068F01309761F00230E0E01E0798F0BC
:10054E00F80131978F01AA81BB811496ED93FC932C
:10055E00AA81BB811296ED91FD913196FE93EE9399
:10056E003197AC81A083AA81BB810E94A406FF2390
:10057E002AF0ED91FD913196FE93EE9306C0AA817D
:10058E00BB81EFEFFFEFED93FC9319810881259668
:10059E000895BA93AA9326970E94B10610E0AC85EF
:1005AE00BD85E0E0F0E0ED93FC93EA89FB8931969E
:1005BE00EA8BFB8B3197E4912E2FE03009F415C1B5
:1005CE00E12FE03039F4253211F411E002C00E941F
:1005DE0031050AC1E130A9F4253219F40E94310522
:1005EE0002C112E040E000E02D3211F401E0FCC047
:1005FE002B3211F44BE2F8C0203211F440E2F4C079
:10060E0002C0E23039F450E013E0203311F40068F8
:10061E00EBC003C0E33009F0E7C0203310F02A33FB
:10062E0008F007C0AAE05A9F502DE22FE0535E0F4C
:10063E00DBC0E22FE33649F40E943805E889F989D8
:10064E00A481AA930E943E05CEC0E33741F40E94D6
:10065E0038050E9444050E9438041E2F0AC0E03758
:10066E0061F40E9438050E9444050E9444041E2F26
:10067E00086002600F7730E034C0E43611F0E936DE
:10068E0011F4046002C0E53731F4E4E5F0E0EE83E6
:10069E00FF8315E00CC0E83511F4086003C0E8379D
:1006AE0009F0A1C0EEE5F0E0EE83FF8314E002FF57
:1006BE0014C00E9438050E944E05AB85AA233AF459
:1006CE00EA85FB850E945206EA87FB874DE24030A1
:1006DE0011F01F5F01C00B7F04C00E9438050E94FD
:1006EE004E0500FD11C0151778F407FF08C002FF74
:1006FE0004C00B7F242F115001C020E301C020E263
:10070E000E9431055150EFCF312F01FF17C030300D
:10071E00A1F003FF06C0EE81FF812591EE83FF83DA
:10072E0005C0AE81BF812D91AE83BF830E9431057E
:10073E00503009F051503150EACF4BC020E3EE81DA
:10074E00FF810E94A806E887F987EE81FF81329625
:10075E00EE83FF83E885F985AA85BB85AE17BF07B3
:10076E0050F02F5FA885B985EA85FB85EA1BFB0B48
:10077E00EA87FB87EFCF2A3328F003FF02C0295FF9
:10078E0001C0295D04FD1AC0213320F4A885B98566
:10079E00119709F409C0531710F000FF01C013C0E0
:1007AE0020E207FF0BC020E3006102FF07C00B7FB2
:1007BE004A930E943E05503009F051500E94310577
:1007CE00503009F051503150A885B985129708F074
:1007DE00B5CF00FF08C0503031F05150E0E2EA933F
:1007EE000E943E05F8CF10E0E0CEAC85BD850E949C
:1007FE00A4060E94B80664960895FF92F82E2697D6
:10080E000E94B3060E945605309719F4EFEFFFEFE2
:10081E0023C0DE0116960E944E068D010E945605DB
:10082E00EE83FF83E0E0E887E987DE011A960E94F7
:10083E004E060E94A406FA93EA931A930A93E0E9ED
:10084E00F2E0FA93EA93DE011A96A3DE9F01AE81DF
:10085E00BF81E0E0EC93F9010E94BA062A96FF9060
:10086E000895BA93AA93A991B991EE27FF276D9196
:10087E00662311F03196FBCF0895BA93AA93AA2757
:10088E00BB27E991F9910590002011F01196FBCF4D
:10089E00FD010895AA93E5B3EF70AE2FE881E07FD6
:1008AE00EA2BE5BB8DE08A95F1F7AA9A8DE08A9541
:1008BE00F1F7AA988DE08A95F1F789C0AA93A881DD
:1008CE00E9DFE881E295E883A881E4DF85E88A958F
:1008DE00F1F77DC0AA93E881F0E0E655FD4FE08187
:1008EE00A981AE0FEBDFE981E093AE02E881E093E0
:1008FE00AF0222960895A2E00E945D05ACE0DEDF15
:10090E00A1E00E945D05E0E0E093AF02E093AE024D
:10091E000895AA93A881AA3031F0E091B002A09177
:10092E00AE02AE1760F0E0E0EA93A091AF02AF5FC7
:10093E00A093AF02CFDFA881AA3009F448C0E0919E
:10094E00AE02EF5FE093AE02A89AA881B7DFA89837
:10095E003EC0BA93AA931A93A981BA81ED91A98345
:10096E00BA831E2FE03019F0A12FD3DFF5CF1881F7
:10097E0023960895AA93E4B3E06FE4BBA29AA09ADB
:10098E00A19AAA98A898A998E881E093B002E05895
:10099E00E093AC02E881E054E093AD02A4E1B0E054
:1009AE000E946B050E9463050E9463050E94630509
:1009BE00A0E270DF88EC90E00197F1F7A8E27EDF0D
:1009CE00A4E07CDFA5E87ADFA6E078DF94DF21964D
:1009DE000895E3E7F2E0FA93EA930895FA93EA931F
:1009EE00F4010E945E060E94AC0684E00E9404049C
:1009FE002896A3E7B2E00C94B004A0918C02B091BB
:100A0E008D0210970895A0918E02B0918F021097CB
:100A1E000895E1E0F0E0E0938702F0938802AB2DB9
:100A2E000E943701A4E6B0E00E946B05A1E20E948D
:100A3E003701A4E6B0E00E946B05A09187020895ED
:100A4E000E943701A4E6B0E00C946B05A4E6B0E07A
:100A5E000C946B052A93AD85BE85EF85F8890995B3
:100A6E000895E889F9893497E88BF98B0895AD8557
:100A7E00BE85EF85F88909950895A889B9891496D8
:100A8E000E94A406EE83FF83AE81BF810895A889DC
:100A9E00B98914960E94A406EA87FB870895DE01A1
:100AAE001C960E944E060E94A40608950E9465049C
:100ABE00A3E0B0E00C946B05A0E30E94510488EC17
:100ACE0090E00197F1F70895109639F080ED97E0D8
:100ADE000197F1F7A8951197C9F70895552342F498
:100AEE00503811F4E0FF04C03196691F791F6BF086
:100AFE0050E8572711F45F9373C05F3F31F0660FD4
:100B0E00000C57956795752F08955F9300200AF096
:100B1E0073C06CC050E8192E1522880F991F9527A7
:100B2E00550F879550E8072E0522660F771F7527FC
:100B3E00550F67950895689401C0E8945F93F2DFAE
:100B4E00703818F07F3F08F44BC056E1571BAAF4DB
:100B5E00519558300EF4593030F0EFEFFFEF6FEF44
:100B6E007FE777F91AC077275523B9F0EE0FFF1FED
:100B7E00661F771F5A95D1F710C07727583028F087
:100B8E00EF2FF62F672F5850F9CF552331F076956A
:100B9E006795F795E7955A95D1F700200AF47FD01F
:100BAE005F910895689401C0E8943097604070405A
:100BBE00B1F0002426F0772312F4009470D0172E93
:100BCE007EE1112032F07A95EE0FFF1F661F111C89
:100BDE00F9CFEF2FF62F612D5F938ADF5F91089586
:100BEE00EE27FF27662777275F910895EFEFFFEF38
:100BFE006FE77FEF5F910895EFEFFFEF6FE77FE70E
:100C0E005F9108955F9386DF703821F411200AF406
:100C1E00EDCFF2CF903809F4E3CF01240894970B6F
:100C2E001BF4D4F30020F3CF792F1F932F933F9310
:100C3E004F9311241127222733274427552790E25B
:100C4E00AE17BF078607410730F0AE1BBF0B860BF2
:100C5E00410B089401C08894551F221F331F111C8D
:100C6E00AA1FBB1F881F441F9A9551F7F901612DCA
:100C7E004F913F912F911F91662332F0550FEE1F2A
:100C8E00FF1F661F7A9543F229DF5F9108950024B6
:100C9E00AF0DB01D0895F195E195F0400895F095D2
:100CAE0060957095E195FF4F6F4F7F4F08956F2FB1
:100CBE00660F660B762F0895FA9FF02DEB9FF00DC1
:100CCE00EA9FE02DF10D08952AD0F6DF0EF4E3DF52
:100CDE0008950024112490E1AA0FBB1F001C111CC3
:100CEE000E1A1F0A18F40E0E1F1E01C0A1609A954F
:100CFE0099F7FD01D001089512D0EBDF0EF4CBDF92
:100D0E000895E894B7FF04C0A095B0951196689425
:100D1E00F7FDC1DFDEDFFD010EF4BDDF0895E894BF
:100D2E00F7FF02C0B8DF6894B7FF06C0A095B09574
:100D3E00119600F8039400FA0895ED91FC91119725
:100D4E0008950590F491E02D08957A936A93FA939D
:100D5E00EA9308955A934A933A932A931A930A93CD
:100D6E0008955D814C813B812A8119810881089506
:00000001FF
