:020000000C945E
:100002005B000C9400000C9400000C9400000C9413
:1000120000000C9400000C9400000C9400000C945E
:1000220000000C9400000C9457010C9456010C949F
:1000320000000C9488000C9400000C9409010C94AC
:1000420058010C9400000C9400000C9400000C94D5
:1000520000001027E80364000A00010000100001FC
:10006200100001000000000000000000E1AA402092
:100072003130313031303130313131313131313172
:10008200256400636F6E6E65637465640054656D0C
:1000920070203A202564000080C001000200660042
:1000A2000A00040068000A00600285000200A10242
:1000B2009A000000F894EE27ECBBF1E0FBBFEBBF27
:1000C200E5BF8DE0A2E0BB27ED938A95E9F780E0DA
:1000D20098E0A0E6ED930197E9F7ECE9F0E085916D
:1000E2009591009761F0A591B59105901590BF018A
:1000F200F00105900D920197E1F7FB01F0CFEFE5DA
:10010200EDBFE8E0EEBFC0E6D2E00C9497010A92A0
:100112001A92FA926A937A938A939A93AA93BA93C7
:10012200EA93FA93EFB7EA931A930A931BB10CB1CD
:10013200E12FEC71E9F4E0918F02EF5FE0938F021F
:10014200E150F0E0E957FD4F0083A0918F02A83003
:1001520019F4E0E0E0938F02A0919102AF5FA093C7
:100162009102A83029F4E0E0E0939102689420F82B
:10017200802E9924EAE6F2E0FA93EA93E2E8F0E0CC
:10018200FA93EA93F4010E94BA04A8EEB3E00E9443
:100192002D050E944C04A02FB0E0AA3AE0E0BE0771
:1001A20039F4E1E0F0E02F01A0E6B2E00E947A0427
:1001B20009911991E991EFBFF991E991B991A99149
:1001C2009991899179916991F9901990099018956D
:1001D2001A93E0919102E030E1F3E0919002EF5F37
:1001E200E0939002E150F0E0E957FD4F1081A091B9
:1001F2009002A83019F4E0E0E0939002F894E091C4
:100202009102E150E09391027894E12F19910895BF
:10021200AA93EA93FA93EFB7EA93E0919C02E03053
:10022200A9F0E150E0939C02E0919B02EF5FE09322
:100232009B02E150F0E0EE56FD4FE081ECB9A09157
:100242009B02A83019F4E0E0E0939B02E991EFBF32
:10025200F991E991A9911895AA93A0919C02A830CD
:10026200E1F3F894E0919C02E03011F45D9918C03A
:10027200E0919A02EF5FE0939A02E150F0E0EE56CD
:10028200FD4FA881A083A0919A02A83019F4E0E062
:10029200E0939A02E0919C02EF5FE0939C0202C01D
:1002A200E881ECB978940C94B804189518958A935F
:1002B200AA93BA93EA93EFB7EA93A091A002B0E0AF
:1002C200A356BD4FE5B1EC93A091A002AF5FA093FE
:1002D200A002A33018F0E0E0E093A002E091A002B7
:1002E200E05EE7B98BE18A95F1F7369AE991EFBFC3
:1002F200E991B991A991899118950E947506E091A9
:100302009D02F0E08F010E9420060E949D05DF0100
:10031200CB01ECEBF4E763E070E40E94CB050E94B2
:1003220064059F010E947C0624960895E0E0EABBE2
:10033200EBBBE8E0E7BBE0E0E8BBE4BBE5BBE1BB6D
:10034200E2BBE3E6E3BFE0E0E2BFE0E6ECBFE0E011
:10035200EFBDEEBDEDBDECBDE7BDE6BDEBBDEABD5B
:10036200E9BDE8BDE2BDE5BDE4BDE3BDE3E0E9BF53
:10037200E0E0E5BFE4BFEBB9E8EDEAB9EEE8E0BDE5
:10038200E0E0E0BDE3E3E9B9E0E8E8B9E0E2E7B9DB
:10039200EBECE6B9E0E0E0BFEDB9E6BFA0E10E9418
:1003A2008B047894042C052809F47DC011DFE093B6
:1003B2008002A0918002B0E0919709F05BC09DDFBE
:1003C2003F01EAE6F2E0FA93EA93EFE8F0E0FA930B
:1003D200EA93F3010E94BA04D301EFEFF0E00E9426
:1003E2004A06E0938302F0938402D301EFEFF0E038
:1003F2000E944506E0938502F09386020E94C6049D
:1004020019F40E94CC0409F407C00E94D2040E948D
:10041200E904A091850228C00E94C60419F00E9436
:10042200CC0409F003C00E94D20419C00E94C60481
:1004320019F00E94CC0409F41CC0E2E0F0E0E09361
:100442007E02F0937F02AB2D0E94E904A0E20E949B
:10045200E904A0917E020E94E904A0918502FCDEDB
:100462000E94EF04A0918302F7DE0E94EF04AA2DFE
:10047200F3DE19C0A0918002B0E0A034E0E0BE0734
:1004820091F4A6DEA5DEF0E0E0938102F093820211
:10049200AFEFB0E00E942D06DF01E4E6F0E00E943B
:1004A2004506ECBF95DE0E94EF040E944C047ACF11
:1004B200FFCFBA93AA931A930A93AA81BB81129689
:1004C2000E946606309759F1AA81BB8114960E9458
:1004D20066068F01309761F00230E0E01E0798F067
:1004E200F80131978F01AA81BB811496ED93FC9399
:1004F200AA81BB811296ED91FD913196FE93EE9306
:100502003197AC81A083AA81BB810E946606FF233A
:100512002AF0ED91FD913196FE93EE9306C0AA81E9
:10052200BB81EFEFFFEFED93FC93198108812596D4
:100532000895BA93AA9326970E94730610E0AC8599
:10054200BD85E0E0F0E0ED93FC93EA89FB8931960A
:10055200EA8BFB8B3197E4912E2FE03009F415C121
:10056200E12FE03039F4253211F411E002C00E948B
:10057200F3040AC1E130A9F4253219F40E94F3040C
:1005820002C112E040E000E02D3211F401E0FCC0B3
:100592002B3211F44BE2F8C0203211F440E2F4C0E5
:1005A20002C0E23039F450E013E0203311F4006865
:1005B200EBC003C0E33009F0E7C0203310F02A3368
:1005C20008F007C0AAE05A9F502DE22FE0535E0FB9
:1005D200DBC0E22FE33649F40E94FA04E889F98984
:1005E200A481AA930E940005CEC0E33741F40E9481
:1005F200FA040E9406050E9402041E2F0AC0E03778
:1006020061F40E94FA040E9406050E940E041E2F45
:10061200086002600F7730E034C0E43611F0E9364A
:1006220011F4046002C0E53731F4E4E5F0E0EE8352
:10063200FF8315E00CC0E83511F4086003C0E83709
:1006420009F0A1C0EEE5F0E0EE83FF8314E002FFC3
:1006520014C00E94FA040E941005AB85AA233AF442
:10066200EA85FB850E941406EA87FB874DE240304B
:1006720011F01F5F01C00B7F04C00E94FA040E94A8
:10068200100500FD11C0151778F407FF08C002FF1E
:1006920004C00B7F242F115001C020E301C020E2CF
:1006A2000E94F3045150EFCF312F01FF17C03030B9
:1006B200A1F003FF06C0EE81FF812591EE83FF8347
:1006C20005C0AE81BF812D91AE83BF830E94F3042A
:1006D200503009F051503150EACF4BC020E3EE8147
:1006E200FF810E946A06E887F987EE81FF813296D0
:1006F200EE83FF83E885F985AA85BB85AE17BF0720
:1007020050F02F5FA885B985EA85FB85EA1BFB0BB4
:10071200EA87FB87EFCF2A3328F003FF02C0295F65
:1007220001C0295D04FD1AC0213320F4A885B985D2
:10073200119709F409C0531710F000FF01C013C04C
:1007420020E207FF0BC020E3006102FF07C00B7F1E
:100752004A930E940005503009F051500E94F30460
:10076200503009F051503150A885B985129708F0E0
:10077200B5CF00FF08C0503031F05150E0E2EA93AB
:100782000E940005F8CF10E0E0CEAC85BD850E9446
:1007920066060E947A0664960895FF92F82E2697BE
:1007A2000E9475060E941805309719F4EFEFFFEFCB
:1007B20023C0DE0116960E9410068D010E941805C4
:1007C200EE83FF83E0E0E887E987DE011A960E9464
:1007D20010060E946606FA93EA931A930A93EAE5D0
:1007E200F2E0FA93EA93DE011A96A3DE9F01AE814C
:1007F200BF81E0E0EC93F9010E947C062A96FF900B
:100802000895BA93AA93A991B991EE27FF276D9102
:10081200662311F03196FBCF0895BA93AA93AA27C3
:10082200BB27E991F9910590002011F01196FBCFB9
:10083200FD010895AA93E5B3EF70AE2FE881E07F42
:10084200EA2BE5BB8DE08A95F1F7AA9A8DE08A95AD
:10085200F1F7AA988DE08A95F1F789C0AA93A88149
:10086200E9DFE881E295E883A881E4DF85E88A95FB
:10087200F1F77DC0AA93E881F0E0EF55FD4FE081EA
:10088200A981AE0FEBDFE981E093A502E881E09355
:10089200A60222960895A2E00E941F05ACE0DEDFC8
:1008A200A1E00E941F05E0E0E093A602E093A5020A
:1008B2000895AA93A881AA3031F0E091A702A091ED
:1008C200A502AE1760F0E0E0EA93A091A602AF5F46
:1008D200A093A602CFDFA881AA3009F448C0E09114
:1008E200A502EF5FE093A502A89AA881B7DFA898B6
:1008F2003EC0BA93AA931A93A981BA81ED91A983B2
:10090200BA831E2FE03019F0A12FD3DFF5CF188163
:1009120023960895AA93E4B3E06FE4BBA29AA09A47
:10092200A19AAA98A898A998E881E093A702E0580A
:10093200E093A302E881E054E093A402A4E1B0E0D2
:100942000E942D050E9425050E9425050E9425056D
:10095200A0E270DF88EC90E00197F1F7A8E27EDF79
:10096200A4E07CDFA5E87ADFA6E078DF94DF2196B9
:1009720008950E9420060E946E0684E00E94CE0323
:100982002896AAE6B2E00C947A04A0918302B09170
:10099200840210970895A0918502B0918602109763
:1009A2000895E1E0F0E0E0937E02F0937F02AB2D48
:1009B2000E942D01A4E6B0E00E942D05A0E20E9453
:1009C2002D01A4E6B0E00E942D05A0917E020895BB
:1009D2000E942D01A4E6B0E00C942D05A4E6B0E03F
:1009E2000C942D052A93AD85BE85EF85F88909956E
:1009F2000895E889F9893497E88BF98B0895AD85D4
:100A0200BE85EF85F88909950895A889B989149654
:100A12000E946606EE83FF83AE81BF810895A88996
:100A2200B98914960E946606EA87FB870895DE015B
:100A32001C960E9410060E94660608950E942F04CA
:100A4200A3E0B0E00C942D05A0E30E941B0488EC07
:100A520090E00197F1F70895109639F080ED97E054
:100A62000197F1F7A8951197C9F70895552342F414
:100A7200503811F4E0FF04C03196691F791F6BF002
:100A820050E8572711F45F9373C05F3F31F0660F50
:100A9200000C57956795752F08955F9300200AF013
:100AA20073C06CC050E8192E1522880F991F952724
:100AB200550F879550E8072E0522660F771F752779
:100AC200550F67950895689401C0E8945F93F2DF2B
:100AD200703818F07F3F08F44BC056E1571BAAF458
:100AE200519558300EF4593030F0EFEFFFEF6FEFC1
:100AF2007FE777F91AC077275523B9F0EE0FFF1F6A
:100B0200661F771F5A95D1F710C07727583028F003
:100B1200EF2FF62F672F5850F9CF552331F07695E6
:100B22006795F795E7955A95D1F700200AF47FD09B
:100B32005F910895689401C0E894309760407040D6
:100B4200B1F0002426F0772312F4009470D0172E0F
:100B52007EE1112032F07A95EE0FFF1F661F111C05
:100B6200F9CFEF2FF62F612D5F938ADF5F91089502
:100B7200EE27FF27662777275F910895EFEFFFEFB4
:100B82006FE77FEF5F910895EFEFFFEF6FE77FE78A
:100B92005F9108955F9386DF703821F411200AF483
:100BA200EDCFF2CF903809F4E3CF01240894970BEC
:100BB2001BF4D4F30020F3CF792F1F932F933F938D
:100BC2004F9311241127222733274427552790E2D8
:100BD200AE17BF078607410730F0AE1BBF0B860B6F
:100BE200410B089401C08894551F221F331F111C0A
:100BF200AA1FBB1F881F441F9A9551F7F901612D47
:100C02004F913F912F911F91662332F0550FEE1FA6
:100C1200FF1F661F7A9543F229DF5F910895002432
:100C2200AF0DB01D0895F195E195F0400895F0954E
:100C320060957095E195FF4F6F4F7F4F08956F2F2D
:100C4200660F660B762F0895FA9FF02DEB9FF00D3D
:100C5200EA9FE02DF10D08952AD0F6DF0EF4E3DFCE
:100C620008950024112490E1AA0FBB1F001C111C3F
:100C72000E1A1F0A18F40E0E1F1E01C0A1609A95CB
:100C820099F7FD01D001089512D0EBDF0EF4CBDF0E
:100C92000895E894B7FF04C0A095B09511966894A2
:100CA200F7FDC1DFDEDFFD010EF4BDDF0895E8943C
:100CB200F7FF02C0B8DF6894B7FF06C0A095B095F1
:100CC200119600F8039400FA0895ED91FC911197A2
:100CD20008950590F491E02D08957A936A93FA931A
:100CE200EA9308955A934A933A932A931A930A934A
:100CF20008955D814C813B812A8119810881089583
:00000001FF
