:040000000C94440018
:100004000C9471000C9472000C9473000C94000016
:100014000C9400000C9400000C9400000C9400005C
:100024000C9400000C9400000C9400000C9400004C
:100034000C9400000C9400000C9400000C947400C8
:100044000C9400000C9400000C9400000C9400002C
:100054001027E80364000A000100001000011000EA
:100064000100000048656C6C6F002564000080C0CE
:1000740002000400660005006002680002006A02D3
:1000840072000000F894EE27ECBBF1E0FBBFEBBF7D
:10009400E5BF8DE0A2E0BB27ED938A95E9F780E008
:1000A40098E0A0E6ED930197E9F7E4E7F0E08591A5
:1000B4009591009761F0A591B59105901590BF01B8
:1000C400F00105900D920197E1F7FB01F0CFEFE508
:1000D400EDBFE8E0EEBFC0E6D2E00C947C001895DA
:1000E400189518951A930A9304B115B1280109912A
:1000F40019911895E0E0EABBEBBBE7BBE8BBE4BBB6
:10010400E5BBE1BBE2BBE3BFE2BFECBFEFBDEEBDCD
:10011400EDBDECBDE7BDE6BDEBBDEABDE9BDE8BDA7
:10012400E2BDE5BDE4BDE3BDE9BFEBB7E06EEBBF07
:10013400EFE0E5BFE0E4E4BFE0EEEABFE0E0EAB907
:10014400E0E8E8B9E0E0E7B9EBE8E6B9E0E0E0BF11
:10015400EDB9E6BFA0E10E94D7027894E0E6F2E0B0
:10016400FA93EA93EEE6F0E0FA93EA93F2010E943E
:100174006A030E94770384E00E9444022896E0E028
:10018400EA93A0E00E949802A8EEB3E00E9458030C
:10019400A0E6B2E00E94C602E1CFFFCFBA93AA93D1
:1001A4001A930A93AA81BB8112960E946F03309717
:1001B40059F1AA81BB8114960E946F038F01309775
:1001C40061F00230E0E01E0798F0F80131978F01EA
:1001D400AA81BB811496ED93FC93AA81BB811296EC
:1001E400ED91FD913196FE93EE933197AC81A0830E
:1001F400AA81BB810E946F03FF232AF0ED91FD9138
:100204003196FE93EE9306C0AA81BB81EFEFFFEF18
:10021400ED93FC931981088125960895BA93AA93C6
:1002240026970E947C0310E0AC85BD85E0E0F0E0F9
:10023400ED93FC93EA89FB893196EA8BFB8B31972A
:10024400E4912E2FE03009F415C1E12FE03039F4A8
:10025400253211F411E002C00E941E030AC1E130EC
:10026400A9F4253219F40E941E0302C112E040E0F1
:1002740000E02D3211F401E0FCC02B3211F44BE20A
:10028400F8C0203211F440E2F4C002C0E23039F484
:1002940050E013E0203311F40068EBC003C0E330F6
:1002A40009F0E7C0203310F02A3308F007C0AAE0B1
:1002B4005A9F502DE22FE0535E0FDBC0E22FE3364E
:1002C40049F40E942503E889F989A481AA930E942C
:1002D4002B03CEC0E33741F40E9425030E9431036F
:1002E4000E9405031E2F0AC0E03761F40E94250313
:1002F4000E9431030E9411031E2F086002600F77D1
:1003040030E034C0E43611F0E93611F4046002C080
:10031400E53731F4E4E5F0E0EE83FF8315E00CC04B
:10032400E83511F4086003C0E83709F0A1C0EEE530
:10033400F0E0EE83FF8314E002FF14C00E94250363
:100344000E943B03AB85AA233AF4EA85FB850E940D
:100354006603EA87FB874DE2403011F01F5F01C05E
:100364000B7F04C00E9425030E943B0300FD11C0C3
:10037400151778F407FF08C002FF04C00B7F242F71
:10038400115001C020E301C020E20E941E0351501D
:10039400EFCF312F01FF17C03030A1F003FF06C0AB
:1003A400EE81FF812591EE83FF8305C0AE81BF817D
:1003B4002D91AE83BF830E941E03503009F051502B
:1003C4003150EACF4BC020E3EE81FF810E947303DA
:1003D400E887F987EE81FF813296EE83FF83E88513
:1003E400F985AA85BB85AE17BF0750F02F5FA88596
:1003F400B985EA85FB85EA1BFB0BEA87FB87EFCF10
:100404002A3328F003FF02C0295F01C0295D04FDDF
:100414001AC0213320F4A885B985119709F409C0BD
:10042400531710F000FF01C013C020E207FF0BC0F8
:1004340020E3006102FF07C00B7F4A930E942B0355
:10044400503009F051500E941E03503009F05150B1
:100454003150A885B985129708F0B5CF00FF08C0C0
:10046400503031F05150E0E2EA930E942B03F8CF70
:1004740010E0E0CEAC85BD850E946F030E9483032B
:1004840064960895FF92F82E26970E947E030E9498
:100494004303309719F4EFEFFFEF23C0DE01169604
:1004A4000E9462038D010E944303EE83FF83E0E018
:1004B400E887E987DE011A960E9462030E946F03AF
:1004C400FA93EA931A930A93E0EDF0E0FA93EA932D
:1004D400DE011A96A3DE9F01AE81BF81E0E0EC93BA
:1004E400F9010E9485032A96FF900895AA93E8B320
:1004F400EF70AE2FE881E07FEA2BE8BB8DE08A95B0
:10050400F1F7C29A8DE08A95F1F7C2988DE08A9549
:10051400F1F777C0AA93A881E9DFE881E295E8833F
:10052400A881E4DF85E88A95F1F76BC0AA93E88196
:10053400F0E0E659FD4FE081A981AE0FEBDF798051
:10054400688022960895A2E00E944A03ACE0E2DFAC
:10055400A1E00E944A03E0E06E2E7E2E0895AA9345
:10056400A881AA3011F0791448F0E0E0EA9363948A
:10057400A62DDCDFA881AA3009F443C07394C09A85
:10058400A881C8DFC0983DC0BA93AA931A93A981E1
:10059400BA81ED91A983BA831E2FE03019F0A12FFF
:1005A400DEDFF5CF188123960895AA93E7B3E06FB1
:1005B400E7BBBA9AB89AB99AC298C098C198988079
:1005C400E881E058E0936C02E881E054E0936D0226
:1005D400A4E1B0E00E9458030E9450030E9450031B
:1005E4000E945003A0E282DF88EC90E00197F1F7CB
:1005F400A8E290DFA4E08EDFA5E88CDFA6E08ADF26
:10060400A2DF21960895BA93AA93A991B991EE27EE
:10061400FF276D91662311F03196FBCF0895BA93AD
:10062400AA93AA27BB27E991F9910590002011F01C
:100634001196FBCFFD0108952A93AD85BE85EF8504
:10064400F88909950895E889F9893497E88BF98B35
:100654000895AD85BE85EF85F88909950895A88923
:10066400B98914960E946F03EE83FF83AE81BF8124
:100674000895A889B98914960E946F03EA87FB87B5
:100684000895DE011C960E9462030E946F03089580
:100694000E948C02A3E0B0E00C945803A0E30E94F3
:1006A400780288EC90E00197F1F70895109639F0FC
:1006B40080ED97E00197F1F7A8951197C9F7089590
:1006C4000024AF0DB01D0895F195E195F040089513
:1006D4006F2F660F660B762F0895ED91FC9111979D
:1006E40008950590F491E02D08957A936A93FA930E
:1006F400EA9308955A934A933A932A931A930A933E
:1007040008955D814C813B812A8119810881089576
:00000001FF
