:040000000C948900D3
:100004000C94D3000C94B6000C9400000C940000E3
:100014000C9400000C9400000C9400000C9400005C
:100024000C9400000C9400000C9400000C9400004C
:100034000C94B6010C9400000C94B7010C940000CD
:100044000C9400000C9400000C9400000C9400002C
:100054001027E80364000A000100001000011000EA
:1000640001000000000000006002000000000031F8
:1000740000320033003400350036003700380039D0
:1000840000300050617373776F726420536176653A
:1000940064202100456E7465722050617373776F1C
:1000A400726400436F72726563742000496E636FFB
:1000B40072726563740080C00100020066000A0069
:1000C4000400680001006002720002006102730013
:1000D40002006302750002006502770002006702F5
:1000E4007900020069027B0002006B027D000200BD
:1000F4006D027F0002006F02810002007102830022
:1001040002007302850002009602BA000000F8940F
:10011400EE27ECBBF1E0FBBFEBBFE5BF8DE0A2E057
:10012400BB27ED938A95E9F780E098E0A0E6ED938C
:100134000197E9F7ECEBF0E085919591009761F078
:10014400A591B59105901590BF01F00105900D9210
:100154000197E1F7FB01F0CFEFE5EDBFE8E0EEBF7B
:10016400C0E6D2E00C94DB011895BA93AA931A93D3
:100174000A9300E010E000E010E0EC81FD8131978B
:100184000E171F0754F4F801AA81BB81AE0FBF1FDD
:10019400EAE2EC930F5F1F4FF0CF19810881269696
:1001A40008950A921A92FA926A937A938A939A9386
:1001B400AA93BA93EA93FA93EFB7EA93B49BC6C0AF
:1001C400E9B3EB3081F4F60131966F0131970E9467
:1001D4008904A1E30E949504A1E6B2E00E949C0474
:1001E40031965F01B3C0EA3061F40E94A404A2E333
:1001F4000E949504A3E6B2E00E949C0432965F013B
:10020400A5C0E93061F40E94A404A3E30E9495040C
:10021400A5E6B2E00E949C0433965F0197C0E730E4
:1002240061F40E94A404A4E30E949504A7E6B2E04A
:100234000E949C0434965F0189C0E63061F40E94F8
:10024400A404A5E30E949504A9E6B2E00E949C04DC
:1002540035965F017BC0E53061F40E94A404A6E3F7
:100264000E949504ABE6B2E00E949C0436965F01BE
:100274006DC0E33061F40E94A404A7E30E949504D6
:10028400ADE6B2E00E949C0437965F015FC0E230A5
:1002940061F40E94A404A8E30E949504AFE6B2E0CE
:1002A4000E949C0438965F0151C0E13061F40E94C1
:1002B4008904A9E30E949504A1E7B2E00E94A8047E
:1002C40039965F0143C0EE3059F40E948904A0E3DB
:1002D4000E949504A3E7B2E00E94A8045F0136C01F
:1002E400ED3061F40E941B040E94B30435010E94A6
:1002F400B704E7E8F0E00E94BC0428C0EF3059F4EA
:100304000E94B704E8E9F0E00E94BC040E94B30430
:10031400AA24BB241BC0EC30C9F46A147B0429F45E
:100324000E94B704E7EAF0E004C00E94B704E0EBDF
:10033400F0E0FA93EA9380E00E948C032496D401BF
:100344000E9449040E94B3040E941B04E991EFBF78
:10035400F991E991B991A9919991899179916991C9
:10036400F9901990099018951895AA93EA93FA931D
:10037400EFB7EA93E0919502E030A9F0E150E09301
:100384009502E0919402EF5FE0939402E150F0E073
:10039400E557FD4FE081ECB9A0919402A83019F41F
:1003A400E0E0E0939402E991EFBFF991E991A9911A
:1003B4001895E0E0EABBEBBBE0E3E7BBE0E0E8BBB9
:1003C400E4BBE5BBE1BBE2BBE3BFE2BFECBFEFBD17
:1003D400EEBDEDBDECBDE7BDE6BDEBBDEABDE9BDDF
:1003E400E8BDE2BDE5BDE4BDE3BDE9BFEBB7E06C4C
:1003F400EBBFEFE0E5BFE0E0E4BFE0ECEABFE0E044
:10040400EBB9E8EDEAB9E6E8E0BDE0E0E0BDE3E33E
:10041400E9B9E0E8E8B9E0E0E0BFE6B9EDB9E6BF84
:10042400A0E10E945A047894FFCFFFCFBA93AA9315
:100434001A930A93AA81BB8112960E942C053097C5
:1004440059F1AA81BB8114960E942C058F01309723
:1004540061F00230E0E01E0798F0F80131978F0157
:10046400AA81BB811496ED93FC93AA81BB81129659
:10047400ED91FD913196FE93EE933197AC81A0837B
:10048400AA81BB810E942C05FF232AF0ED91FD91E6
:100494003196FE93EE9306C0AA81BB81EFEFFFEF86
:1004A400ED93FC931981088125960895BA93AA9334
:1004B40026970E94340510E0AC85BD85E0E0F0E0AD
:1004C400ED93FC93EA89FB893196EA8BFB8B319798
:1004D400E4912E2FE03009F415C1E12FE03039F416
:1004E400253211F411E002C00E94C5040AC1E130B2
:1004F400A9F4253219F40E94C50402C112E040E0B7
:1005040000E02D3211F401E0FCC02B3211F44BE277
:10051400F8C0203211F440E2F4C002C0E23039F4F1
:1005240050E013E0203311F40068EBC003C0E33063
:1005340009F0E7C0203310F02A3308F007C0AAE01E
:100544005A9F502DE22FE0535E0FDBC0E22FE336BB
:1005540049F40E94CC04E889F989A481AA930E94F1
:10056400D204CEC0E33741F40E94CC040E94D804E4
:100574000E94D1031E2F0AC0E03761F40E94CC040C
:100584000E94D8040E94DD031E2F086002600F77CA
:1005940030E034C0E43611F0E93611F4046002C0EE
:1005A400E53731F4E4E5F0E0EE83FF8315E00CC0B9
:1005B400E83511F4086003C0E83709F0A1C0EEE59E
:1005C400F0E0EE83FF8314E002FF14C00E94CC0429
:1005D4000E94E204AB85AA233AF4EA85FB850E94D3
:1005E4000D05EA87FB874DE2403011F01F5F01C023
:1005F4000B7F04C00E94CC040E94E20400FD11C0E1
:10060400151778F407FF08C002FF04C00B7F242FDE
:10061400115001C020E301C020E20E94C5045150E2
:10062400EFCF312F01FF17C03030A1F003FF06C018
:10063400EE81FF812591EE83FF8305C0AE81BF81EA
:100644002D91AE83BF830E94C504503009F05150F0
:100654003150EACF4BC020E3EE81FF810E94300588
:10066400E887F987EE81FF813296EE83FF83E88580
:10067400F985AA85BB85AE17BF0750F02F5FA88503
:10068400B985EA85FB85EA1BFB0BEA87FB87EFCF7D
:100694002A3328F003FF02C0295F01C0295D04FD4D
:1006A4001AC0213320F4A885B985119709F409C02B
:1006B400531710F000FF01C013C020E207FF0BC066
:1006C40020E3006102FF07C00B7F4A930E94D2041B
:1006D400503009F051500E94C504503009F0515077
:1006E4003150A885B985129708F0B5CF00FF08C02E
:1006F400503031F05150E0E2EA930E94D204F8CF36
:1007040010E0E0CEAC85BD850E942C050E943B051F
:1007140064960895FF92F82E26970E9436050E944B
:10072400EA04309719F4EFEFFFEF23C0DE011696C9
:100734000E9409058D010E94EA04EE83FF83E0E034
:10074400E887E987DE011A960E9409050E942C05B4
:10075400FA93EA931A930A93E8E1F2E0FA93EA939C
:10076400DE011A96A3DE9F01AE81BF81E0E0EC9327
:10077400F9010E943D052A96FF900895BA93AA9321
:10078400E991F991A991B991CD016D916623E9F7A8
:10079400119761916D936623E1F7FC010895BA9373
:1007A400AA93A991B991EE27FF276D91662311F0C1
:1007B4003196FBCF0895BA93AA93AA27BB27E99150
:1007C400F9910590002011F01196FBCFFD010895D9
:1007D400AA93E5B3EF70AE2FE881E07FEA2BE5BB87
:1007E4008DE08A95F1F7AA9A8DE08A95F1F7AA9897
:1007F4008DE08A95F1F789C0AA93A881E9DFE881A1
:10080400E295E883A881E4DF85E88A95F1F77DC065
:10081400AA93E881F0E0EA56FD4FE081A981AE0F8A
:10082400EBDFE981E0939A02E881E0939B02229650
:100834000895A2E00E94F104ACE0DEDFA1E00E9492
:10084400F104E0E0E0939B02E0939A020895AA93F6
:10085400A881AA3031F0E0919C02A0919A02AE17CF
:1008640060F0E0E0EA93A0919B02AF5FA0939B024B
:10087400CFDFA881AA3009F448C0E0919A02EF5F63
:10088400E0939A02A89AA881B7DFA8983EC0BA93C9
:10089400AA931A93A981BA81ED91A983BA831E2FD1
:1008A400E03019F0A12FD3DFF5CF188123960895F6
:1008B400AA93E4B3E06FE4BBA29AA09AA19AAA987F
:1008C400A898A998E881E0939C02E058E0939802E4
:1008D400E881E054E0939902A4E1B0E00E94FF04AF
:1008E4000E94F7040E94F7040E94F704A0E270DF5C
:1008F40088EC90E00197F1F7A8E27EDFA4E07CDFCA
:10090400A5E87ADFA6E078DF94DF21960895DA92ED
:10091400CA92A5E7B2E00E94B7000E941B04A5E7B3
:10092400B2E00C9449040E942904E5E7F2E0FA934A
:10093400EA9308950E94C003F501AAE0B0E00E9482
:1009440019050895F60131966F01E1CF0E94C003A5
:10095400F60131966F01F501AAE0B0E00E94190595
:100964000895A4E6B0E00C94FF040E941B049A923C
:100974008A920895FA93EA9380E00E948C03249665
:10098400D4010C9449042A93AD85BE85EF85F8897A
:1009940009950895E889F9893497E88BF98B0895C6
:1009A400AD85BE85EF85F88909950895A889B9892B
:1009B40014960E942C05EE83FF83AE81BF810895B7
:1009C400A889B98914960E942C05EA87FB870895A3
:1009D400DE011C960E9409050E942C0508950E94C0
:1009E400FE03A3E0B0E00C94FF04A0E30E94EA033A
:1009F40088EC90E00197F1F70895109639F080EDB6
:100A040097E00197F1F7A8951197C9F70895002485
:100A1400AF0DB01D0895F195E195F0400895FA9F4A
:100A2400F02DEB9FF00DEA9FE02DF10D089504D019
:100A3400F6DF0EF4F0DF0895E894F7FF02C0EBDF71
:100A44006894B7FF06C0A095B095119600F803947A
:100A540000FA0895ED91FC91119708950590F49191
:100A6400E02D08955A934A933A932A931A930A933A
:100A740008955D814C813B812A8119810881089503
:00000001FF
